:100000000C941E010C94AC040C94CC040C94EA05E2
:100010000C948A050C943B010C943B010C943B011D
:100020000C943B010C943B010C94AB070C943B01EA
:100030000C943B010C940D0E0C943B010C943B0171
:100040000C943B010C943B010C943B010C940D115E
:100050000C943B0175047B04810487048D04930494
:1000600099040A493243204552524F52202D2054C0
:1000700057492053544154453A203078005468651C
:1000800020526F626F74206E6565647320746F20F8
:100090006265207265736574746564206E6F772E77
:1000A0000A0A00596F75206E65656420746F2063BD
:1000B0006865636B204D6F746F7220617373656D3B
:1000C000626C7920286F7220796F757220736F6669
:1000D0007477617265292E0A0A000A0A28732E2095
:1000E0007461736B5F6D6F746F72436F6E74726F58
:1000F0006C28292066756E6374696F6E20696E20A6
:100100005250364C696221290A000A0A232323200F
:100110004D4F544F52204F56455243555252454E23
:1001200054202323230A00596F75206E65656420CF
:10013000746F20636865636B20456E636F646572DE
:100140002F4D6F746F7220617373656D626C7920CF
:10015000286F7220796F757220736F667477617281
:1001600065292E0A0A00210A0A28732E2074617359
:100170006B5F6D6F746F72436F6E74726F6C282952
:100180002066756E6374696F6E20696E20525036FA
:100190004C696221290A005249474854004C45469F
:1001A00054004166666563746564206368616E6EC1
:1001B000656C3A000A23232320454E434F444552A1
:1001C00020284F52204D4F544F5229204D414C462C
:1001D000554E4354494F4E21202323230A00232305
:1001E00023232320414C4C204F5045524154494F2A
:1001F0004E532053544F5050454420544F2050529A
:100200004556454E5420414E592044414D414745A5
:10021000212023232323230A000A0A232323232321
:1002200020454D455247454E435920534855544467
:100230004F574E2023232323230A000011241FBEDF
:10024000CFE5D8E0DEBFCDBF11E0A0E6B0E0E8EF3B
:10025000F6E202C005900D92AE30B107D9F712E078
:10026000AEE0B1E001C01D92A838B107E1F70E94ED
:100270007C110C947A130C940000CF93C82F82E663
:1002800090E00E94840D60E18C2F90E00E94B00D00
:100290008AE0CF910C94740D80939601609397013E
:1002A00020910E01E22FF0E0EE0FFF1FE858FE4F05
:1002B00080919601909197019183808381E0820FD4
:1002C00080930E0190916000891302C010920E017C
:1002D000089520916000E8E7F1E060E080E090E0C0
:1002E000621731F03081830F911D6F5F3296F8CF26
:1002F00070E00E940D13CB01089520916000E9E7A2
:10030000F1E060E080E090E0621731F03081830F2F
:10031000911D6F5F3296F8CF70E00E940D13CB01F4
:100320000895FF920F931F93CF93DF938FE690E092
:100330000E94780D80910E0190E06AE001970E9482
:10034000B00D86E790E00E94780D8AE00E94740D5F
:10035000F12C80916000F81670F589E890E00E9419
:10036000780D0F2D10E06AE0C8010E94B00D80E802
:1003700090E00E94780DE801CC0FDD1FC858DE4FD9
:1003800088816AE090E00E94B00D88E890E00E94C9
:10039000780D6AE0C8010E94B00D80E990E00E94EB
:1003A000780D89816AE090E00E94B00D8AE00E9499
:1003B000740DF394CECF8AE00E94740D8AE0DF9131
:1003C000CF911F910F91FF900C94740D40E06BE45E
:1003D00080ED0C9467100F931F93CF93DF93EC0184
:1003E00063E480ED0E94491081ED0E941C1090E0B2
:1003F0009983888364E480ED0E944910188100E0AD
:1004000081ED0E941C10082B1983088365E480EDA0
:100410000E94491081ED0E941C1090E09B838A830A
:1004200066E480ED0E944910188100E081ED0E9491
:100430001C10082B1B830A8367E480ED0E9449107F
:1004400081ED0E941C1090E09D838C8368E480ED18
:100450000E944910188100E081ED0E941C10082BB9
:100460001D830C83DF91CF911F910F910895CF933E
:10047000DF9300D000D000D0CDB7DEB749835A83D8
:100480006B837C838D839E83CE0101960E94EB015A
:1004900080910F0196E0989FD0011124A856BE4F7D
:1004A000FE01319601900D929A95E1F78F5F80934E
:1004B0000F0190916100891302C010920F012696DE
:1004C0000FB6F894DEBF0FBECDBFDF91CF91089578
:1004D000EF92FF920F931F93CF93DF938FE690E0FD
:1004E0000E94780D80910F01882321F090E06AE04E
:1004F000019703C06AE080E090E00E94B00D86E7BB
:1005000090E00E94780D8AE00E94740DF12C86E044
:10051000E82E80916100F81608F041C08FE990E064
:100520000E94780D0F2D10E06AE0C8010E94B00D06
:1005300089E990E00E94780DE09EE001E19ED00DF7
:100540001124C856DE4F6AE0888199810E94B00D5F
:100550008EE990E00E94780D6AE0C8010E94B00D1B
:1005600086EA90E00E94780D6AE08A819B810E9471
:10057000B00D8EE990E00E94780D6AE0C8010E94FB
:10058000B00D8BEA90E00E94780D6AE08C819D812D
:100590000E94B00D8AE00E94740DF394BACF8AE0F5
:1005A0000E94740D8AE0DF91CF911F910F91FF900F
:1005B000EF900C94740D8F929F92AF92BF92CF9256
:1005C000DF92EF92FF920F931F93CF93DF9300D0B0
:1005D00000D000D0CDB7DEB749835A836B837C83CC
:1005E0008D839E830E9469014C010E947D015C0104
:1005F0008C01080D191D1695079585E0809FB001A7
:10060000819F700D112480E090E00E940D122DEC6E
:100610003CEC4CEC5CE30E9473126B017C0180EBC0
:1006200090E00E94780D6AE0C4010E94B00D8AE05B
:100630000E94740D85EC90E00E94780D6AE0C5017F
:100640000E94B00D8AE00E94740D8BED90E00E9434
:10065000780D6AE0C8010E94B00D8AE00E94740D16
:100660008BEE90E00E94780DC701B6010E94DC116C
:10067000DC01CB016AE00E94B00D85EF90E00E94A2
:10068000780D8AE00E94740D8AE00E94740DC09279
:10069000F201D092F301E092F401F092F501898128
:1006A0009A819093F7018093F6018B819C819093BE
:1006B000F9018093F8018D819E819093FB018093D5
:1006C000FA0181E08093FC0181E090E09093FE01CB
:1006D0008093FD0181E026960FB6F894DEBF0FBE31
:1006E000CDBFDF91CF911F910F91FF90EF90DF90E1
:1006F000CF90BF90AF909F908F9008958BEF90E038
:100700000E94780D6091F2017091F3018091F401E3
:100710009091F5010E94E111462F61E084E50E946D
:1007200067104091F60162E084E50E9467104091F5
:10073000F80163E084E50E9467104091FA0164E0EB
:1007400084E50E9467104091FC0165E084E50E9409
:1007500067104091FD0166E084E50C9467100E94EB
:100760002D058091110181110AC08FE30E941204AE
:1007700081E0809311010E9491010C946802109213
:100780001101109210010895089508950895089593
:1007900080911302843010F010921302089584E0C7
:1007A00080931302089587B38C7787BB88B38C77C7
:1007B00088BB8091770183FF02C0BF9AC79A80915E
:1007C000770184FF02C0B99AC19A8091770185FFB1
:1007D00002C0B89AC09A84B38F7884BB85B38F78EF
:1007E00085BB24B38091770130E1839FC001112440
:1007F0008077822B84BB25B38091770130E1839F82
:10080000C00111248077822B85BB80911302811156
:1008100006C081E090917701911101C080E0809342
:1008200013020895809377010C94D303C098B8986D
:10083000000086B381709091770195FF02C0B89A4D
:10084000C09A0895AE98A698000083B380749091E2
:10085000770192FF02C0A69AAE9A089590936A001B
:10086000809369000895CF9380914B028333C0F049
:100870000E941604C82F0E9422049091FF019C132D
:1008800004C090915C02981749F0C093FF018093D7
:100890005C02E0916900F0916A00099510924B02A8
:1008A000CF91089536990AC0806487B986ED86B9DC
:1008B0003699FECF349A84B195B1089580E090E0E6
:1008C0000895806487B986ED86B90895369943C046
:1008D0008091230190E08730910598F5FC01E65D59
:1008E000FF4F84B195B10C944313909360028093B1
:1008F0005F0286E423C0909365028093640285E4DE
:100900001DC0909356028093550283E417C09093C4
:100910001F0280931E0282E411C0909345028093CF
:10092000440280E40BC0909353028093520281E40E
:1009300005C090931D0280931C0287E487B986ED61
:1009400086B980912301863019F41092230108950D
:100950008F5F8093230108951F920F920FB60F921D
:1009600011248F939F938091580290915902019680
:1009700090935902809358028091500290915102B5
:10098000019690935102809350029F918F910F9006
:100990000FBE0F901F9018951F920F920FB60F92D7
:1009A00011248F939F9380914C0290914D02019658
:1009B00090934D0280934C028091260290912702E1
:1009C000019690932702809326029F918F910F901A
:1009D0000FBE0F901F90189590936800809367004A
:1009E0000895893C08F088EC90E09093050280938C
:1009F0000402693C08F068EC70E0709303026093B5
:100A000002020895809312012FEF280F91E0223007
:100A100008F090E0909316018D7F91E0813009F00D
:100A200090E0909315010895292F221F2227221F5D
:100A300020931601771F7727771F709315011816DB
:100A4000190614F0819561950C94F104909176014A
:100A5000937081E009F080E00895109205021092F1
:100A60000402109203021092020210920F021092DE
:100A70000E0210924A0210924902809176018E7FF6
:100A80008D7F8093760180935E02E0916700F09104
:100A900068000994633D08F062ED70E070932502F0
:100AA00060932402833D08F082ED90E0909315025C
:100AB000809314020895809314016093130180932E
:100AC000160160931501882311F0AA9A01C0AA9813
:100AD000662311F0AB9A0895AB980895909109029E
:100AE000992321F099B7906899BFF8CF6F7370E0A0
:100AF00070638F7320E4829FC0011124682B792BCF
:100B00007093290260932802809108028064809388
:100B1000080208951F920F920FB60F9211248F931F
:100B20009F93809166008230B0F5809122018823E6
:100B3000D1F08C3338F4809142029091430296FFB9
:100B400007C008C0809142029091430296FF02C004
:100B5000979803C082B3805882BB80912201815054
:100B60008093220130C0809109029798882359F11F
:100B70008091420290914302880F991F9093430203
:100B80008093420288E7809322018091090281507C
:100B90008093090218C080910D02882391F0809102
:100BA000080280FD05C088B390E4892788BB03C094
:100BB00085B3805885BB80910D02815080930D02D2
:100BC00002C0C69AAF9A9F918F910F900FBE0F905F
:100BD0001F9018951F920F920FB60F9211248F93AA
:100BE00080916600833011F0863079F4809108029C
:100BF00084FD0BC08091080285FF07C0B29905C033
:100C000080915D028F5F80935D0286B380910802C0
:100C10008D7F809308028F910F900FBE0F901F90D1
:100C200018959093650080936400089590936300F5
:100C30008093620008958091200290912102029792
:100C400008F43CC18091080284FD19C180916600BE
:100C5000823009F467C028F4882369F0813091F06C
:100C600014C1853009F4AFC0863009F4C5C08330A3
:100C700009F00BC16FC089B78F7789BF9798C69A63
:100C8000AF9A03C18091090281112AC080910802A4
:100C900086FF14C08091280290912902909343020C
:100CA000809342028EE080930902809108028F7B3C
:100CB0008093080289B7806889BF06C089B78F779B
:100CC00089BF9798C69AAF9A8091210191E0980FB9
:100CD00090932101843138F082E08093660003C054
:100CE00089B7806889BF8091080283FFCEC0E091F8
:100CF0006400F09165008091610290916202099513
:100D0000809161029091620290931102809310028F
:100D1000109262021092610280910802877F809394
:100D20000802B3C089B78F7789BF9798C69AAF9AE0
:100D300010920D0210925D021092200110921F017C
:100D4000809108028E7F80628093080283E0809306
:100D5000210177C080910D02811110C08091210185
:100D600091E0980F90932101833040F089B780681B
:100D700089BF88E280930D021092210180913E028A
:100D8000882321F080915D02823020F480915D0201
:100D9000863038F010925D0281E080933E0285E05B
:100DA00050C080911F01909120019C012F5F3F4F07
:100DB0003093200120931F010E9708F466C0109213
:100DC0003E0285E051C089B78F7789BF9798C69A50
:100DD000AF9A10920D0210925D02109220011092B3
:100DE0001F0180910802816080628093080283E085
:100DF0008093210186E025C080910D02811110C0F1
:100E00008091210191E0980F90932101833040F06F
:100E100089B7806889BF88E280930D021092210112
:100E200080914702882321F080915D02823020F476
:100E300080915D02863040F010925D0281E08093E7
:100E400047028093660021C080911F01909120018C
:100E50009C012F5F3F4F3093200120931F010E977D
:100E6000A0F01092470281E08093660089B78F77E7
:100E700089BF9798C69AAF9A10920D0206C0109239
:100E8000200110921F011092210190913E022091A9
:100E90001E0180914702291304C020911D012817CB
:100EA00049F090931E0180931D01E0916200F09142
:100EB0006300099510922102109220020895109269
:100EC000660089B78F7789BF9798C69AAF9A1092B4
:100ED000470210923E02089589B78F7789BF97988D
:100EE000C69AAF9A1092470210923E0281E0809318
:100EF000660008958E989698BB98C398C698AF9848
:100F000008958E9A969ABB98C39808958E9896984D
:100F1000BB9AC39A08958E9A969ABB9AC39A0895DB
:100F2000C49A80911302843018F483E080931302F2
:100F30000895C49880911302843060F4811107C031
:100F400081E090917701911103C080E001C081E0C0
:100F50008093130208951F920F920FB60F921124DF
:100F60002F933F934F935F936F937F938F939F93B1
:100F7000AF93BF9380917401909175010196909306
:100F8000750180937401809154028F5F80935402A5
:100F90008091570291E0980F90935702893008F49E
:100FA00047C180912C0280FF09C080912D02909151
:100FB0002E02019690932E0280932D0280912C0296
:100FC00081FF09C080912F02909130020196909389
:100FD000300280932F0280912C0282FF09C0809101
:100FE0003102909132020196909332028093310245
:100FF00080912C0283FF09C08091330290913402CA
:101000000196909334028093330280912C0284FFE6
:1010100009C0809135029091360201969093360274
:101020008093350280912C0285FF09C080913702A0
:101030009091380201969093380280933702809104
:101040002C0286FF09C08091390290913A020196E4
:1010500090933A028093390280912C0287FF09C055
:1010600080913B0290913C02019690933C028093C8
:101070003B028091480291E0980F90934802893C8E
:10108000E8F0809126029091270290935B02809372
:101090005A028091500290915102909317028093CE
:1010A00016021092270210922602109251021092FC
:1010B000500281E080931202109248024091130284
:1010C000433008F052C0423081F5809177018111A0
:1010D00020C080911B0190911C019C012F5F3F4F0C
:1010E00030931C0120931B0168EC70E00E940D13EB
:1010F000892BD9F5213A3F4028F0B998C198109230
:10110000130229C087B3842787BB88B3842788BB91
:101110002CC084FD02C0B998C19810921C01109295
:101120001B0181E08093130220C080911B019091EC
:101130001C01813E2EE2920798F0413049F4109252
:1011400013028091770184FD06C0B998C19803C04D
:1011500082E08093130210921C0110921B0105C0C3
:10116000019690931C0180931B0180912002909125
:101170002102039748F48091200290912102019668
:10118000909321028093200280914002873318F4CB
:101190008F5F8093400280914B02843328F48091CA
:1011A0004B028F5F80934B028091460291E0980F33
:1011B000909346028330D0F140914102242F30E0D9
:1011C00080912402909125022817390759F0281799
:1011D000390714F44F5F01C04150409341028091A0
:1011E00041028ABD40916302242F30E080911402B5
:1011F000909115022817390759F02817390714F468
:101200004F5F01C04150409363028091630288BDEB
:1012100080916302811104C080914102882319F0FA
:1012200082EA8FBD01C01FBC109246021092570285
:101230003091080233FD47C08091190190911A0145
:10124000209118012F5F20931801263198F096FD08
:101250000AC095FF08C09093620280936102832FB9
:10126000886080930802809108028F7E8093080234
:1012700080E090E04091170136B3342732FF1FC061
:10128000342F309530931701273040F480910802B5
:101290008F7E8093080280E090E004C0009711F0F8
:1012A0002F3068F02091080220612093080296FDFB
:1012B00002C0880F991F32FF81601092180190932D
:1012C0001A0180931901BF91AF919F918F917F91E6
:1012D0006F915F914F913F912F910F900FBE0F90A3
:1012E0001F90189510925402909154029817E0F3B1
:1012F0000895CF93DF93EC01209729F08AE00E94B4
:1013000072092197F9CFDF91CF910895019710F0DD
:101310000000FCCF0895C82FF89497980E947A0790
:1013200010921502109214021092250210922402BB
:1013300010920F0210920E0210924A02109249026D
:1013400010926302109241021ABC18BC1FBC0E948A
:10135000990789E192E00E94840D8EED91E00E9450
:10136000840D8FEF8C0F8230C0F484EB91E00E94EB
:10137000840D82EA91E00E94840DC13019F48DE958
:1013800091E002C087E991E00E94840D86E691E039
:101390000E94840D87E291E00CC0C33061F48AE0C2
:1013A00091E00E94840D8AED90E00E94840D83EA12
:1013B00090E00E94840D8DE790E00E94840DD6E3BA
:1013C000D09377010E94D303CAE080E090E80E94A6
:1013D0008609C150D1F7109277010E94D303CAE069
:1013E0008FEF9FEF0E948609C150D1F7E9CF80911E
:1013F0004002823308F475C01092400220913D02F1
:10140000809164029091650221113CC04091760167
:10141000833023E0920738F4209155023091560230
:1014200023303340E0F080913F028F5F80933F0292
:101430008AE080933D0210921502109214021092DD
:1014400025021092240210920F0210920E021092A6
:101450004A02109249024460409376010895242F75
:101460002B7F2093760120910A02253628F01092D6
:101470003F0210920A0206C020913F02233010F072
:1014800083E014C08639910598F4809116029091FA
:101490001702892B69F48091040290910502892B2F
:1014A00039F080916302873918F081E00E948B093E
:1014B00080915502909156028639910590F4809161
:1014C0005A0290915B02892B61F480910202909103
:1014D0000302892B31F080914102873910F082E0BC
:1014E000E5CF80911202882309F48EC180913D02DC
:1014F000811185C180913F02882331F080910A02D9
:101500008F5F80930A0202C010920A024091760116
:1015100041FF39C020915802309159028091000258
:10152000909101022817390788F010920502109255
:10153000040210920F0210920E02109215021092E5
:101540001402842F8D7F809376011DC02091580254
:101550003091590280911802909119022817390789
:1015600090F0809104029091050296958795909352
:10157000050280930402469730F486E190E0909350
:101580000502809304024091760140FF39C020910A
:101590004C0230914D028091220290912302281733
:1015A000390788F0109203021092020210924A0248
:1015B000109249021092250210922402842F8E7FED
:1015C000809376011DC020914C0230914D02809194
:1015D0004E0290914F022817390790F08091020235
:1015E000909103029695879590930302809302024F
:1015F000469730F486E190E09093030280930202D4
:101600008091160190911401891307C02091150152
:1016100090911301291709F451C04091040250918F
:10162000050220910202309103024115510519F47F
:101630002115310501F150930702409306023093C2
:101640001B0220931A0210920502109204021092BB
:1016500003021092020210922502109224021092AC
:1016600015021092140210920F0210920E021092A4
:101670004A02109249029FB5911120C06091150154
:101680000E945B052091060230910702309305020B
:101690002093040280911A0290911B0290930302FE
:1016A000809302023695279530930F0220930E0205
:1016B0009695879590934A0280934902209104025F
:1016C000309105028091160290911702A901481BE2
:1016D000590BCA0140910E0250910F02840F951FC1
:1016E000853A51E0950714F084EA91E090930F0257
:1016F00080930E0280910E0290910F028C359E4FC6
:1017000034F48CE59EEF90930F0280930E0280914B
:10171000160290911702892B31F4232B21F4109299
:101720000F0210920E0280910E0290910F0297FD0F
:10173000019695958795833D910514F082ED90E093
:1017400090931502809314028091140290911502D7
:1017500097FF04C010921502109214022091020209
:101760003091030280915A0290915B02A901481BBB
:10177000590BCA014091490250914A02840F951FAA
:10178000853A51E0950714F084EA91E090934A027B
:10179000809349028091490290914A028C359E4F74
:1017A00034F48CE59EEF90934A0280934902809135
:1017B0005A0290915B02892B31F4232B21F4109271
:1017C0004A02109249028091490290914A0297FD83
:1017D000019695958795833D910514F082ED90E0F3
:1017E00090932502809324028091240290912502F7
:1017F00097FF08C0109225021092240203C0815066
:1018000080933D02109212028091760190915E02C7
:10181000981739F080935E02E0916700F0916800BC
:1018200009940895D49ADC9A0895DC98D498089580
:101830000E9466040E941B060E9433040C94F70960
:10184000EF92FF921F93CF93DF931F92CDB7DEB736
:10185000162F7A01909176019160926090937601B3
:1018600010924F0210924E0210921902109218021A
:10187000873180F046EF5FEF481B5109440F551F39
:101880004E0D5F1D50934F0240934E02509319022C
:1018900040931802A70142505109509323024093EC
:1018A0002202509301024093000298E2E916F104EB
:1018B000C0F444E150E0509323024093220250933D
:1018C0000102409300024AE050E050934F024093DF
:1018D0004E025093190240931802A8E2EA2EF12C0E
:1018E00005C0E0E9EE16E1E0FE0698F4893288F0E2
:1018F000A7015695479556954795C701841B950BAB
:1019000090934F0280934E02909319028093180295
:1019100088E2109259021092580210924D021092D1
:101920004C02682F29830E94F104812F0E94020536
:10193000F0922B02E0922A02F0920C02E0920B024B
:101940008091760180935E02E0916700F0916800DB
:1019500009952981222339F00E942605811103C0AF
:101960000E94180CF9CF0F90DF91CF911F91FF903B
:10197000EF900895FF920F931F93CF93DF93182F4B
:10198000F62E022F8091760181608260809376012D
:101990009A01A0EBB2E00E94FE1224E630E040E0A3
:1019A00050E00E942113E901C901845691099093E6
:1019B0004F0280934E029093190280931802309345
:1019C0002302209322023093010220930002283246
:1019D0003105B0F444E150E05093230240932202D9
:1019E00050930102409300024AE050E050934F02AE
:1019F00040934E025093190240931802C8E2D0E07F
:101A0000612F812F0E94F1048F2D0E9402051092F8
:101A100059021092580210924D0210924C02D0932B
:101A20002B02C0932A02D0930C02C0930B02809128
:101A3000760180935E02E0916700F091680009955D
:101A4000002339F00E942605811103C00E94180C62
:101A5000F9CFDF91CF911F910F91FF9008951BBA9D
:101A600018BA15BA81E082BB1ABA88E587BB8CE840
:101A700084BB82EF81BBF894C598BD9A97980E9469
:101A80007A0710BC8CE089B91BB886E880BD88E96C
:101A90008AB917B886E186B910BE85E085BF80EEA9
:101AA0008BBF14BE8AE083BF83E68CBF82EA8FBD02
:101AB00081E18EBD82ED90E097BD86BD1ABC18BC59
:101AC00060E080E00E945B0589E085BD8EE683BD15
:101AD00082E089BF8091080281608093080281E0E2
:101AE00080936600789408955D9BFECF8CB908952D
:101AF000CF93DF93EC018991882319F00E94740D34
:101B0000FACFDF91CF910895CF93DF93FC018491B9
:101B1000EF012196882321F00E94740DFE01F7CF7A
:101B2000DF91CF9108950F931F93CF93DF931F926F
:101B3000CDB7DEB78C01040F111DF80181918F0123
:101B4000882341F0662331F069830E94740D698116
:101B50006150F3CF0F90DF91CF911F910F910895B6
:101B6000CF93DF93CDB7DEB761970FB6F894DEBFA2
:101B70000FBECDBF462F50E0BE016F5F7F4F0E946A
:101B80004913CE0101960E94780D61960FB6F89424
:101B9000DEBF0FBECDBFDF91CF910895EF92FF92D0
:101BA0000F931F93CF93DF93CDB7DEB761970FB637
:101BB000F894DEBF0FBECDBFE42E462F50E08E015D
:101BC0000F5F1F4FB8010E944913F80101900020D8
:101BD000E9F73197E01BF10BFE2CFE1A1F1454F4A9
:101BE000FA9480E30E94740DF110FACFC8010E94AC
:101BF000780D06C04F2D41956E2DC8010E94930DA2
:101C000061960FB6F894DEBF0FBECDBFDF91CF91C6
:101C10001F910F91FF90EF9008951F920F920FB6B2
:101C20000F9211242F938F939F93EF93FF93909193
:101C3000240180912501292F281B2032A8F4E0914E
:101C4000260181E08E0F80932601F0E02CB1E95946
:101C5000FD4F20839F5F90932401813210F01092FA
:101C600026011092660206C08CB18093290181E0A2
:101C700080936602FF91EF919F918F912F910F902A
:101C80000FBE0F901F90189510926602809125014B
:101C9000909124019817A1F08F5F80932501809186
:101CA0002701813210F010922701E091270181E095
:101CB0008E0F80932701F0E0E959FD4F8081089550
:101CC00080E0089510926602282FFC018E2F821B5F
:101CD00090912501309124013917B9F08617A8F4A5
:101CE0009F5F90932501A091270181E08A0F809347
:101CF0002701B0E0A959BD4F8C91819380912701B4
:101D0000813220F310922701E1CF089580912401C0
:101D100090912501891B089557988CB180932801D3
:101D20001092270110922601109225011092240191
:101D300010926602579A089508950895F89480B90C
:101D400011B88FEF83B984E086BF80913101816043
:101D5000809331017894089590936E0080936D0084
:101D6000089590936C0080936B000895CF93DF9358
:101D70001F92CDB7DEB786E9898389819FEF980FDF
:101D800099838111FACF0F90DF91CF91089506B614
:101D900000FCFDCF2091310120FF0BC025E331E095
:101DA000FC01D9018A2F821B861718F48D9181932B
:101DB000F9CF089506B600FCFDCF8091300108955B
:101DC00006B600FC5EC08091310180FF42C0809168
:101DD0002A01882309F455C0813091F40E94B60E7F
:101DE00082E08093330190912F0190936401909150
:101DF0002E01909365011092310195EA96BF15C0AE
:101E00008230B1F40E94B60E80912D018F5F8093D5
:101E1000330180912F01816080932F0180936401B1
:101E20001092310185EA86BF83E080932A010895EC
:101E3000833039F510922A0180912B0190912C0169
:101E40008F3F2FEF9207E9F0E0916D00F0916E0067
:101E500017C00E94DA0E8823A1F010922A019091F7
:101E6000310191609093310110922F0110922C0159
:101E700010922B0110922D01E0916B00F0916C00FB
:101E800009940895CF93DF9300D01F92CDB7DEB7AA
:101E900006B600FE09C04B836A8389830E94E00E68
:101EA00089816A814B81F4CF90912A019111F3CFFE
:101EB00092E090932A0180932F0170E070932C019F
:101EC00060932B0140932D010F900F900F90DF91A5
:101ED000CF910895CF93DF9300D000D0CDB7DEB778
:101EE00006B600FE0BC02C834B836A8389830E9455
:101EF000E00E89816A814B812C81F2CF90912A0179
:101F00009111F1CF91E090932A0170E070932C0130
:101F100060932B0180932F0140932E0120932D017C
:101F20000F900F900F900F90DF91CF910895EF9247
:101F3000FF921F93CF93DF9300D0CDB7DEB77A0126
:101F4000122F06B600FE07C06A8389830E94E00E46
:101F500089816A81F6CF90912A019111F5CF91E0A4
:101F600090932A0180932F018FEF9FEF90932C0184
:101F700080932B0160932E0110932D0106B600FE75
:101F800003C00E94E00EFACF80912A018111F9CF9F
:101F90008091310180FF0CC061E0610FC7010F909B
:101FA0000F90DF91CF911F91FF90EF900C94C70E8F
:101FB0000F900F90DF91CF911F91FF90EF900895B8
:101FC0000F931F93CF93DF93082FEB01142F06B6C7
:101FD00000FE03C00E94E00EFACF80912A01811119
:101FE000F9CF0E94B60E82E080932A0100932F0160
:101FF0008FEF9FEF90932C0180932B0110932D0175
:1020000006B600FE03C00E94E00EFACF80912A01BE
:102010008111F9CF8091310180FF09C061E0610F2A
:10202000CE01DF91CF911F910F910C94C70EDF91DC
:10203000CF911F910F910895CF93C82F06B600FE40
:1020400003C00E94E00EFACF80912A018111F9CFDE
:102050000E94B60E82E080932A01C0932F018FEF79
:102060009FEF90932C0180932B0181E080932D01B1
:1020700080912A01882319F00E94E00EF9CF809107
:10208000310180FF03C08091350101C080E0CF9114
:102090000895CF93DF93D82FC62F06B600FE03C056
:1020A0000E94E00EFACF80912A018111F9CF0E949F
:1020B000B60E82E080933301D0936401C093650132
:1020C0001092310185EA86BFDF91CF9108951F9369
:1020D000CF93DF93182FD62FC42F06B600FE03C070
:1020E0000E94E00EFACF80912A018111F9CF0E945F
:1020F000B60E83E08093330110936401D0936501A1
:10210000C09366011092310185EA86BFDF91CF91BD
:102110001F9108950F931F93CF93DF93082F162FCE
:10212000D42FC22F06B600FE03C00E94E00EFACFE5
:1021300080912A018111F9CF0E94B60E84E080932C
:1021400033010093640110936501D0936601C0933D
:1021500067011092310185EA86BFDF91CF911F910F
:102160000F910895FF920F931F93CF93DF93F82E53
:10217000162FD42FC22F06B600FE03C00E94E00E19
:10218000FACF80912A018111F9CF0E94B60E85E025
:1021900080933301F092640110936501D09366013E
:1021A000C0936701009368011092310185EA86BFF0
:1021B000DF91CF911F910F91FF9008950F931F937F
:1021C000CF93DF93182FD62FC72F042F06B600FE0C
:1021D00003C00E94E00EFACF80912A018111F9CF4D
:1021E0000E94B60E41E0400F40933301109364010A
:1021F000ED2FFC2F85E691E0DC012A2F281B241708
:1022000018F421912D93F9CF1092310185EA86BF00
:10221000DF91CF911F910F9108951F920F920FB6EA
:102220000F9211242F933F938F939F93EF93FF93DC
:1022300081B1883211F140F48031E9F08831E9F060
:10224000883009F049C017C0803491F140F48833D8
:1022500009F042C081B18093300185EA41C08035E8
:10226000E1F08835C9F583B1E0913201F0E0EC5C32
:10227000FE4F80832BC010923201E0913201809199
:102280003301E81718F581E08E0F80933201F0E0FA
:10229000EC59FE4F808183B917C0E091320181E093
:1022A0008E0F8093320183B1F0E0EC5CFE4F8083AF
:1022B0002091320130E08091330190E0019728179E
:1022C000390714F485EC0CC085E80AC0809131010F
:1022D00081608093310103C081B18093300184E932
:1022E00086BFFF91EF919F918F913F912F910F901A
:1022F0000FBE0F901F901895CF93DF9300D000D0A2
:1023000000D0CDB7DEB70E942F0D80E20E949E0E56
:102310008DE391E00E94B10E8FEA93E00E942E04BB
:102320000E9490070E94E60180912C0281608093B8
:102330002C020E94F7090E9433040E94E00E809153
:102340001101811128C00E94120460E080E00E9407
:102350005B056CE38CE30E94F10480912D02909167
:102360002E02893E934028F360915A0270915B02DD
:1023700080911602909117020E944C0149815A8166
:102380006B817C818D819E810E94370210922E028A
:1023900010922D02CECF809110018111CACF4981B8
:1023A0005A816B817C818D819E810E94DB028093AA
:1023B00010010E947E03BDCF04D06894B1118DC07E
:1023C000089570D088F09F5790F0B92F9927B75192
:1023D000A0F0D1F0660F771F881F991F1AF0BA95E9
:1023E000C9F712C0B13081F077D0B1E0089574C060
:1023F000672F782F8827B85F39F0B93FCCF38695DF
:1024000077956795B395D9F73EF49095809570953B
:1024100061957F4F8F4F9F4F0895E89409C097FBB8
:102420003EF490958095709561957F4F8F4F9F4FAB
:102430009923A9F0F92F96E9BB279395F6958795EF
:1024400077956795B795F111F8CFFAF4BB0F11F4B2
:1024500060FF1BC06F5F7F4F8F4F9F4F16C0882359
:1024600011F096E911C0772321F09EE8872F762F8F
:1024700005C0662371F096E8862F70E060E02AF0D0
:102480009A95660F771F881FDAF7880F96958795BC
:1024900097F9089557FD9058440F551F59F05F3F25
:1024A00071F04795880F97FB991F61F09F3F79F076
:1024B00087950895121613061406551FF2CF4695F8
:1024C000F1DF08C0161617061806991FF1CF86957A
:1024D0007105610508940895E894BB27662777275E
:1024E000CB0197F908950BD078C069D028F06ED051
:1024F00018F0952309F05AC05FC01124EECFCADF4F
:10250000A0F3959FD1F3950F50E0551F629FF00106
:10251000729FBB27F00DB11D639FAA27F00DB11D5F
:10252000AA1F649F6627B00DA11D661F829F2227E8
:10253000B00DA11D621F739FB00DA11D621F839F6F
:10254000A00D611D221F749F3327A00D611D231F45
:10255000849F600D211D822F762F6A2F11249F5793
:1025600050408AF0E1F088234AF0EE0FFF1FBB1FB6
:10257000661F771F881F91505040A9F79E3F510555
:1025800070F014C0AACF5F3FECF3983EDCF3869561
:1025900077956795B795F795E7959F5FC1F7FE2B00
:1025A000880F911D9695879597F9089597F99F67DC
:1025B00080E870E060E008959FEF80EC08950024CB
:1025C0000A941616170618060906089500240A9498
:1025D00012161306140605060895092E0394000C1E
:1025E00011F4882352F0BB0F40F4BF2B11F460FFAD
:1025F00004C06F5F7F4F8F4F9F4F0895A29FB00120
:10260000B39FC001A39F700D811D1124911DB29F26
:10261000700D811D1124911D0895AA1BBB1B51E152
:1026200007C0AA1FBB1FA617B70710F0A61BB70B42
:10263000881F991F5A95A9F780959095BC01CD01E7
:102640000895A1E21A2EAA1BBB1BFD010DC0AA1FF3
:10265000BB1FEE1FFF1FA217B307E407F50720F00B
:10266000A21BB30BE40BF50B661F771F881F991F86
:102670001A9469F760957095809590959B01AC01CF
:10268000BD01CF010895EE0FFF1F0590F491E02DDD
:102690000994FB019F01E8944230C4F04532B4F440
:1026A0004A3029F497FB1EF4909581959F4F642F33
:1026B00077270E940D13805D8A330CF0895D81932A
:1026C000CB010097A1F716F45DE251931082C90186
:1026D0000C946A13DC01FC01672F71917723E1F7F9
:1026E000329704C07C916D9370836291AE17BF07DF
:0826F000C8F30895F894FFCF30
:1026F8000F0FC703C60301C503C4039D0E9C0E49F3
:102708006E6465782000206368616E6765642E00DA
:10271800206C6566743A200020537065656420005B
:102728002072696768743A200020583A20002047D0
:1027380079726F3A200020593A2000205A3A200036
:1027480041766572616765206C6566742073706593
:1027580065643A2000417665726167652072696731
:1027680068742073706565643A200041766572610B
:1027780067652073706565643A200041766572610B
:1027880067653A200020636D2F730053454E444916
:0E2798004E4720544F2041524455494E4F00A9
:00000001FF
