:100000000C946A000C9475040C94A1040C94CD0417
:100010000C9487000C9487000C9487000C94870044
:100020000C9487000C9487000C942A060C9487008B
:100030000C9487000C9415090C9487000C9487008D
:100040000C9487000C9487000C9487000C94150C7A
:100050000C9487000A0A504335206973204C4F578F
:10006000210A0A000A0A504335206973204849478B
:1000700048210A0A000A0A504333206973204C4F72
:1000800057210A0A000A0A5043332069732048495D
:100090004748210A0A000A0A504332206973204C5B
:1000A0004F57210A0A000A0A504332206973204838
:1000B000494748210A0A0023000A49324320455291
:1000C000524F52202D205457492053544154453A01
:1000D0002030780011241FBECFE5D8E0DEBFCDBFB1
:1000E00011E0A0E6B0E0E0E8F1E202C005900D9278
:1000F000AC3BB107D9F713E0ACEBB1E001C01D9206
:10010000AF33B107E1F70E94BB0E0C94BE100C9404
:100110000000CF93C82F89EB90E00E948C0860E12B
:100120008C2F90E00E94B8088AE0CF910C947C0854
:100130008091C601882341F041E06EE080E00E949A
:1001400042081092C60108956EE080E00E945107B7
:1001500087EB90E00E94A50781E08093C601089597
:100160001F93CF93DF93182FEB010E94970760E056
:1001700080E00E9451078AE790E00E94D00760E08B
:1001800081E00E9451076AE0812F90E00E94DC0725
:100190008AE890E00E94D0076AE0CE01DF91CF911B
:1001A0001F910C94DC0723B3247030E08091C401CC
:1001B0009091C5012817390759F10E9436049A9B7E
:1001C0001FC082E08093BF016091BE016F5F6093AA
:1001D000BE0170E082E090E00E94B00083E990E010
:1001E0000E9480088091BE016AE090E00E94B808F9
:1001F00085EA90E00E94800881E891E00E948008F2
:1002000083B3847090E09093C5018093C4010895F6
:1002100023B3287030E08091C2019091C301281768
:10022000390759F10E9436049B9B1FC083E08093DD
:10023000BF016091BD016F5F6093BD0170E083E01D
:1002400090E00E94B0008DEA90E00E9480088091CA
:10025000BD016AE090E00E94B80885EA90E00E9443
:10026000800881E891E00E94800883B3887090E064
:100270009093C3018093C201089523B3207230E0AC
:100280008091C0019091C1012817390751F10E9456
:1002900036049D9B1FC085E08093BF016091BC0127
:1002A0006F5F6093BC0170E085E090E00E94B00059
:1002B0008FEB90E00E9480088091BC016AE090E0A2
:1002C0000E94B80885EA90E00E94800881E891E0E9
:1002D0000E94800883B3807290E09093C101809364
:1002E000C00108958093430260934402E4E2F2E087
:1002F000828193818193919382E0E034F807C1F782
:100300008091430290914402909341028093400275
:10031000089520916000E4E2F2E060E080E090E087
:10032000621731F03081830F911D6F5F3296F8CFE5
:1003300070E00E947910CB01089520916000E5E201
:10034000F2E060E080E090E0621731F03081830FEE
:10035000911D6F5F3296F8CF70E00E947910CB014B
:100360000895FF920F931F93CF93DF9381ED90E059
:100370000E9480088091C70190E06AE001970E9486
:10038000B80888ED90E00E9480088AE00E947C080E
:10039000F12C80916000F81670F58BEE90E00E94D1
:1003A00080080F2D10E06AE0C8010E94B80882EEB4
:1003B00090E00E948008E801CC0FDD1FCC5DDD4F8E
:1003C00088816AE090E00E94B8088AEE90E00E947E
:1003D00080086AE0C8010E94B80882EF90E00E949D
:1003E000800889816AE090E00E94B8088AE00E9453
:1003F0007C08F394CECF8AE00E947C088AE0DF91EB
:10040000CF911F910F91FF900C947C0840E06BE41A
:1004100080ED0C946F0BCF93DF93EC0163E480EDE0
:100420000E94510B81ED0E94240B888364E480EDCF
:100430000E94510B81ED0E94240B898365E480EDBD
:100440000E94510B81ED0E94240B8A8366E480EDAB
:100450000E94510B81ED0E94240B8B8367E480ED99
:100460000E94510B81ED0E94240B8C8368E480ED87
:100470000E94510B81ED0E94240B8D8381E08093BB
:10048000C801DF91CF910895CF93DF9300D000D0C2
:1004900000D0CDB7DEB749835A836B837C838D83CD
:1004A0009E838091B90281608093B902CE0101964A
:1004B0000E940B028091C90196E0989FD0011124FF
:1004C000AB5BBD4FFE01319601900D929A95E1F71D
:1004D0008F5F8093C90190916100891302C01092CF
:1004E000C9011092BB021092BA028091C801882300
:1004F000E9F0CE0101960E940B028BE492E026E027
:10050000DC011697FC01322F01900D923A95E1F72C
:10051000069632E08F39930799F786E0FE0131960F
:10052000A9E9B2E001900D928A95E1F71092C80115
:1005300026960FB6F894DEBF0FBECDBFDF91CF91E8
:100540000895EF92FF920F931F93CF93DF9381ED66
:1005500090E00E9480088091C901882321F090E0FA
:100560006AE0019703C06AE080E090E00E94B8086A
:1005700088ED90E00E9480088AE00E947C08E12CCF
:1005800056E0F52E80916100E81608F05FC081E02A
:1005900091E00E9480080E2D10E06AE0C8010E94E0
:1005A000B8088BEF90E00E948008F09EE001F19E79
:1005B000D00D1124CB5BDD4F2881332727FD3095EB
:1005C000322F22278981992787FD90956AE0822B17
:1005D000932B0E94B80880E091E00E9480086AE0B6
:1005E000C8010E94B80888E091E00E9480082A8132
:1005F000332727FD3095322F22278B81992787FDBE
:1006000090956AE0822B932B0E94B80880E091E0DD
:100610000E9480086AE0C8010E94B8088DE091E05D
:100620000E9480082C81332727FD3095322F222706
:100630008D81992787FD90956AE0822B932B0E94EC
:10064000B8088AE00E947C08E3949CCF8AE00E946C
:100650007C088AE0DF91CF911F910F91FF90EF907E
:100660000C947C08AF92BF92CF92DF92EF92FF92F0
:100670000F931F93CF93DF930E9489018C010E94F7
:100680009D015C01EC01C00FD11FD695C79585E097
:100690008C9FB0018D9F700D112480E090E00E942E
:1006A000880F2DEC3CEC4CEC5CE30E94EE0F6B01F0
:1006B0007C0182E191E00E9480086AE0C8010E940A
:1006C000B8088AE00E947C0887E291E00E948008D6
:1006D0006AE0C5010E94B8088AE00E947C088DE3A8
:1006E00091E00E9480086AE0CE010E94B8088AE08A
:1006F0000E947C088DE491E00E948008C701B60149
:100700000E94570FDC01CB016AE00E94B80887E520
:1007100091E00E9480088AE00E947C088AE00E94A2
:100720007C088DE591E00E94800820919902332792
:1007300027FD3095322F222780919A02992787FD35
:1007400090956AE0822B932B0E94B8088AE00E9461
:100750007C088AE00E947C0883E691E00E94800881
:1007600020919B02332727FD3095322F222780913D
:100770009C02992787FD90956AE0822B932B0E941B
:10078000B8088AE00E947C088AE00E947C0889E61A
:1007900091E00E94800820919D02332727FD30952B
:1007A000322F222780919E02992787FD90956AE03B
:1007B000822B932B0E94B8088AE00E947C088AE072
:1007C0000E947C08C092A002D092A102E092A202F4
:1007D000F092A30280919F028093A40281E090E0B6
:1007E0009093A6028093A502DF91CF911F910F9164
:1007F000FF90EF90DF90CF90BF90AF9008958FE67D
:1008000091E00E9480086091A0027091A102809105
:10081000A2029091A3020E945C0F462F61E084E542
:100820000E946F0B20919A024091990262E084E548
:100830000E94920B20919C0240919B0263E084E510
:100840000E94920B20919E0240919D0264E084E5FB
:100850000E94920B4091A40265E084E50E946F0B18
:100860004091A50266E084E50C946F0B83E891E06B
:100870000E9480088091CB01811126C083E991E01C
:100880000E9480080E94B1010E94A1028091F102A1
:10089000811104C080912A03882311F081E00BC0EC
:1008A0009A9B02C084E007C09B9B02C083E003C008
:1008B0009D9B03C082E080939F028FE00E94B70E51
:1008C00081E08093CB01089587EA91E00E9480083F
:1008D0001092CB011092CA010895089508950895C9
:1008E000909367008093660008951F920F920FB651
:1008F0000F9211242F933F934F935F936F937F93A6
:100900008F939F93AF93BF93EF93FF93E091660014
:10091000F09167000995FF91EF91BF91AF919F9181
:100920008F917F916F915F914F913F912F910F9098
:100930000FBE0F901F9018959093650080936400F0
:1009400008951F920F920FB60F9211242F933F9389
:100950004F935F936F937F938F939F93AF93BF93C7
:10096000EF93FF93E0916400F09165000995FF918A
:10097000EF91BF91AF919F918F917F916F915F9117
:100980004F913F912F910F900FBE0F901F90189590
:10099000909363008093620008951F920F920FB6A8
:1009A0000F9211242F933F934F935F936F937F93F5
:1009B0008F939F93AF93BF93EF93FF93E091620068
:1009C000F09163000995FF91EF91BF91AF919F91D5
:1009D0008F917F916F915F914F913F912F910F90E8
:1009E0000FBE0F901F90189536990AC0806487B982
:1009F00086ED86B93699FECF349A84B195B10895C3
:100A000080E090E008958FB9779BFECF08958FEF37
:100A10000E9403058FB10895CF93DF930E940705CD
:100A2000C82FD0E0DC2FCC270E9407059E01282B81
:100A3000C901DF91CF910895CF93C82F892F0E94CC
:100A400003058C2FCF910C940305282FFC018E2FCA
:100A5000821B861728F481918FB9779BFECFF7CF41
:100A60000895282FFC019FEF8E2F821B861730F4EC
:100A70009FB9779BFECF8FB18193F6CF0895CF9327
:100A8000DF93EC01C09883E00E940305CE010E9431
:100A90001C050E940705C09ADF91CF910895EF923F
:100AA000FF920F931F93CF93DF931F92CDB7DEB7C3
:100AB0007C018B01C09883E049830E940305C70134
:100AC0000E941C054981642FC8010E943105C09A0B
:100AD0000F90DF91CF911F910F91FF90EF900895AC
:100AE000C09886E00E940305C09A0895C09884E0EB
:100AF0000E940305C09A0895C09885E00E940305EE
:100B00000E940705C09A08951F93CF93DF93EC01CD
:100B1000162F0E947C0580FDFCCF0E947005C098B6
:100B200082E00E940305CE010E941C05812F0E94D5
:100B30000305C09ADF91CF911F910895FF920F9303
:100B40001F93CF93DF93EC018B01F42E0E947C0561
:100B500080FDFCCF0E947005C09882E00E940305D2
:100B6000CE010E941C056F2DC8010E942505C09A68
:100B7000DF91CF911F910F91FF9008958091CA024C
:100B80000E940305949A00000000949808958F70C5
:100B90009091CA02907F982B9093CA020C94BE0544
:100BA000CF93DF9381E00E94F404EC01CC3F83E01B
:100BB000D80788F400000000000081E00E94F404DF
:100BC000C80FD91FD695C795C233D10588F0C43454
:100BD00082E0D80778F0CC3B82E0D80768F0C631D5
:100BE00083E0D80758F0CE33D34050F485E009C0F5
:100BF00081E007C082E005C083E003C084E001C05B
:100C000080E0DF91CF9108958091CD01882339F064
:100C10000E94D005811108C01092CD0108950E9454
:100C2000D0058093CD01089580E00895CF93C091C1
:100C3000CC01CC2341F00E94D005811108C0109254
:100C4000CC018C2F05C00E94D0058093CC0180E0A0
:100C5000CF9108951F920F920FB60F9211248F9388
:100C60009F938091200290912102019690932102FE
:100C7000809320028091CB028F5F8093CB02809182
:100C8000CC0291E0980F9093CC02893008F484C094
:100C90008091B90280FF09C08091BA029091BB0295
:100CA00001969093BB028093BA028091B90281FFB2
:100CB00009C08091BC029091BD0201969093BD0243
:100CC0008093BC028091B90282FF09C08091BE026C
:100CD0009091BF0201969093BF028093BE028091D3
:100CE000B90283FF09C08091C0029091C1020196B0
:100CF0009093C1028093C0028091B90284FF09C021
:100D00008091C2029091C30201969093C302809396
:100D1000C2028091B90285FF09C08091C4029091FE
:100D2000C50201969093C5028093C4028091B902D6
:100D300086FF09C08091C6029091C70201969093E8
:100D4000C7028093C6028091B90287FF09C08091D3
:100D5000C8029091C90201969093C9028093C8027B
:100D60008091A70280FF16C08091CD029091CE02A3
:100D7000892B39F415BC8091A7028E7F8093A7023E
:100D800009C08091CD029091CE0201979093CE023E
:100D90008093CD021092CC029F918F910F900FBE45
:100DA0000F901F9018959091A70291609093A702C1
:100DB0007093CE026093CD02809583BD8EE185BD98
:100DC00008959091A7029E7F9093A702982F9095E7
:100DD00093BD882319F08EE185BD089515BC089553
:100DE0001092CB0290E001962091CB0230E0821766
:100DF0009307D4F70895CF93DF93EC01209729F060
:100E00008AE00E94F0062197F9CFDF91CF910895F3
:100E1000D09AD89881E090E00E94FB06D09808957F
:100E2000CF93DF9300D0CDB7DEB780E00E94F4040B
:100E30008530910530F089839A830E9408079A8152
:100E400089810F900F90DF91CF910895019710F055
:100E50000000FCCF08958295807F9091CA029F7018
:100E6000982B9093CA020E94BE05C49A82E390E038
:100E70000E942607C4980895CF93C82F82958F703B
:100E80000E942B078C2F0E942B0786E990E0CF91C0
:100E90000C942607C3980E943C0786E990E00C94C6
:100EA00026076068813009F4605C862F0C944A073D
:100EB00083E00E942B0780E596E40E94260783E0EA
:100EC0000E942B078CE795E10E94260783E00E9491
:100ED0002B078CE795E10E94260782E00E942B07F2
:100EE0008CE795E10E94260788E20E944A078CE77A
:100EF00095E10E94260788E00E944A078CE795E169
:100F00000E94260781E00E944A078CE795E10E9433
:100F1000260782E00E944A078CE795E10E94260797
:100F20008CE00E944A078CE795E10C94260781E04B
:100F30000E944A078CE795E10C942607C39A0E9409
:100F40003C0782E390E00C942607CF93DF93FC01EB
:100F50008491EF012196882321F00E949E07FE01D3
:100F6000F7CFDF91CF9108950F931F93CF93DF9326
:100F700000D0CDB7DEB78B0189839A830E94970793
:100F800089819A810E94A50780EC0E944A07C801C6
:100F90000F900F90DF91CF911F910F910C94A507A7
:100FA000CF93DF93EC018991882319F00E949E076B
:100FB000FACFDF91CF910895462F50E068EA72E0B2
:100FC0000E948D1088EA92E00C94D0070F931F9333
:100FD000CF93DF931F92CDB7DEB78C01040F111DA5
:100FE000F80181918F01882341F0662331F06983F4
:100FF0000E949E0769816150F3CF0F90DF91CF91DE
:101000001F910F910895EF92FF920F931F93CF932B
:10101000DF93CDB7DEB761970FB6F894DEBF0FBE92
:10102000CDBFE42E462F50E08E010F5F1F4FB80159
:101030000E948D10F80101900020E9F73197E01B24
:10104000F10BFE2CFE1A1F1454F4FA9480E30E9454
:101050009E07F110FACFC8010E94D00706C04F2D9D
:1010600041956E2DC8010E94E60761960FB6F8946F
:10107000DEBF0FBECDBFDF91CF911F910F91FF90CB
:10108000EF900895CF93C42F0E945107CC2329F0ED
:1010900080E20E949E07C150F9CFCF9108951BBAFC
:1010A00087E088BB8CEF85BB81E682BB1ABA8BEBED
:1010B00087BB14BA82E981BBF89410BC89E189B975
:1010C0001BB886E880BD88E98AB917B886E186B979
:1010D00010BE8FE085BF1BBE14BE8AE083BF87ECC5
:1010E0008CBF15BC8FEF83BD82E089BF80E58DB9D1
:1010F00081E08EB9789408955D9BFECF8CB90895F8
:10110000CF93DF93EC018991882319F00E947C082A
:10111000FACFDF91CF910895CF93DF93FC018491B3
:10112000EF012196882321F00E947C08FE01F7CF71
:10113000DF91CF9108950F931F93CF93DF931F9269
:10114000CDB7DEB78C01040F111DF80181918F011D
:10115000882341F0662331F069830E947C0869810D
:101160006150F3CF0F90DF91CF911F910F910895B0
:10117000CF93DF93CDB7DEB761970FB6F894DEBF9C
:101180000FBECDBF462F50E0BE016F5F7F4F0E9464
:101190008D10CE0101960E94800861960FB6F894DA
:1011A000DEBF0FBECDBFDF91CF910895EF92FF92CA
:1011B0000F931F93CF93DF93CDB7DEB761970FB631
:1011C000F894DEBF0FBECDBFE42E462F50E08E0157
:1011D0000F5F1F4FB8010E948D10F8010190002091
:1011E000E9F73197E01BF10BFE2CFE1A1F1454F4A3
:1011F000FA9480E30E947C08F110FACFC8010E94A3
:10120000800806C04F2D41956E2DC8010E949B0895
:1012100061960FB6F894DEBF0FBECDBFDF91CF91C0
:101220001F910F91FF90EF9008951F920F920FB6AC
:101230000F9211242F938F939F93EF93FF9390918D
:10124000CE018091CF01292F281B2032A8F4E091F4
:10125000D00181E08E0F8093D001F0E02CB1E053FB
:10126000FD4F20839F5F9093CE01813210F010924A
:10127000D0011092CF0206C08CB18093D30181E0DF
:101280008093CF02FF91EF919F918F912F910F90BB
:101290000FBE0F901F9018951092CF028091CF0132
:1012A0009091CE019817A1F08F5F8093CF0180912C
:1012B000D101813210F01092D101E091D10181E091
:1012C0008E0F8093D101F0E0E053FD4F80810895AF
:1012D00080E008951092CF02282FFC018E2F821BF0
:1012E0009091CF013091CE013917B9F08617A8F44B
:1012F0009F5F9093CF01A091D10181E08A0F8093ED
:10130000D101B0E0A053BD4F8C9181938091D10168
:10131000813220F31092D101E1CF08958091CE0166
:101320009091CF01891B089557988CB18093D20179
:101330001092D1011092D0011092CF011092CE01E3
:101340001092CF02579A089508950895F89480B99D
:1013500011B88FEF83B984E086BF8091DB01816093
:101360008093DB017894089590936B0080936A00DA
:10137000089590936900809368000895CF93DF9358
:101380001F92CDB7DEB786E9898389819FEF980FD9
:1013900099838111FACF0F90DF91CF91089506B60E
:1013A00000FCFDCF2091DB0120FF0BC02FED31E0D1
:1013B000FC01D9018A2F821B861718F48D91819325
:1013C000F9CF089506B600FCFDCF8091DA010895AB
:1013D00006B600FC5EC08091DB0180FF42C08091B8
:1013E000D401882309F455C0813091F40E94BE09CC
:1013F00082E08093DD019091D90190930E0290914B
:10140000D80190930F021092DB0195EA96BF15C0A8
:101410008230B1F40E94BE098091D7018F5F809322
:10142000DD018091D90181608093D90180930E0202
:101430001092DB0185EA86BF83E08093D401089592
:10144000833039F51092D4018091D5019091D60165
:101450008F3F2FEF9207E9F0E0916A00F0916B0067
:1014600017C00E94E2098823A1F01092D401909144
:10147000DB0191609093DB011092D9011092D601AB
:101480001092D5011092D701E0916800F0916900A7
:1014900009940895CF93DF9300D01F92CDB7DEB7A4
:1014A00006B600FE09C04B836A8389830E94E8095F
:1014B00089816A814B81F4CF9091D4019111F3CF4E
:1014C00092E09093D4018093D90170E07093D6019B
:1014D0006093D5014093D7010F900F900F90DF914B
:1014E000CF910895CF93DF9300D000D0CDB7DEB772
:1014F00006B600FE0BC02C834B836A8389830E944F
:10150000E80989816A814B812C81F2CF9091D401C5
:101510009111F1CF91E09093D40170E07093D601D6
:101520006093D5018093D9014093D8012093D701CE
:101530000F900F900F900F90DF91CF910895EF9241
:10154000FF921F93CF93DF9300D0CDB7DEB77A0120
:10155000122F06B600FE07C06A8389830E94E8093D
:1015600089816A81F6CF9091D4019111F5CF91E0F4
:101570009093D4018093D9018FEF9FEF9093D60180
:101580008093D5016093D8011093D70106B600FE71
:1015900003C00E94E809FACF8091D4018111F9CFEC
:1015A0008091DB0180FF0CC061E0610FC7010F90EB
:1015B0000F90DF91CF911F91FF90EF900C94CF0986
:1015C0000F900F90DF91CF911F91FF90EF900895B2
:1015D0000F931F93CF93DF93082FEB01142F06B6C1
:1015E00000FE03C00E94E809FACF8091D401811166
:1015F000F9CF0E94BE0982E08093D4010093D90103
:101600008FEF9FEF9093D6018093D5011093D70170
:1016100006B600FE03C00E94E809FACF8091D4010B
:101620008111F9CF8091DB0180FF09C061E0610F7A
:10163000CE01DF91CF911F910F910C94CF09DF91D3
:10164000CF911F910F910895CF93C82F06B600FE3A
:1016500003C00E94E809FACF8091D4018111F9CF2B
:101660000E94BE0982E08093D401C093D9018FEF1C
:101670009FEF9093D6018093D50181E08093D701AD
:101680008091D401882319F00E94E809F9CF809154
:10169000DB0180FF03C08091DF0101C080E0CF91BA
:1016A0000895CF93DF93D82FC62F06B600FE03C050
:1016B0000E94E809FACF8091D4018111F9CF0E94EC
:1016C000BE0982E08093DD01D0930E02C0930F0229
:1016D0001092DB0185EA86BFDF91CF9108951F93B9
:1016E000CF93DF93182FD62FC42F06B600FE03C06A
:1016F0000E94E809FACF8091D4018111F9CF0E94AC
:10170000BE0983E08093DD0110930E02D0930F0297
:10171000C09310021092DB0185EA86BFDF91CF9162
:101720001F9108950F931F93CF93DF93082F162FC8
:10173000D42FC22F06B600FE03C00E94E809FACFDC
:101740008091D4018111F9CF0E94BE0984E0809379
:10175000DD0100930E0210930F02D0931002C0938C
:1017600011021092DB0185EA86BFDF91CF911F91B4
:101770000F910895FF920F931F93CF93DF93F82E4D
:10178000162FD42FC22F06B600FE03C00E94E80910
:10179000FACF8091D4018111F9CF0E94BE0985E072
:1017A0008093DD01F0920E0210930F02D09310028D
:1017B000C0931102009312021092DB0185EA86BFEA
:1017C000DF91CF911F910F91FF9008950F931F9379
:1017D000CF93DF93182FD62FC72F042F06B600FE06
:1017E00003C00E94E809FACF8091D4018111F9CF9A
:1017F0000E94BE0941E0400F4093DD0110930E02AC
:10180000ED2FFC2F8FE092E0DC012A2F281B2417FC
:1018100018F421912D93F9CF1092DB0185EA86BF50
:10182000DF91CF911F910F9108951F920F920FB6E4
:101830000F9211242F933F938F939F93EF93FF93D6
:1018400081B1883211F140F48031E9F08831E9F05A
:10185000883009F049C017C0803491F140F48833D2
:1018600009F042C081B18093DA0185EA41C0803538
:10187000E1F08835C9F583B1E091DC01F0E0E25296
:10188000FE4F80832BC01092DC01E091DC0180913F
:10189000DD01E81718F581E08E0F8093DC01F0E0A0
:1018A000E25FFD4F808183B917C0E091DC0181E0E8
:1018B0008E0F8093DC0183B1F0E0E252FE4F808313
:1018C0002091DC0130E08091DD0190E00197281744
:1018D000390714F485EC0CC085E80AC08091DB015F
:1018E00081608093DB0103C081B18093DA0184E9D8
:1018F00086BFFF91EF919F918F913F912F910F9014
:101900000FBE0F901F90189508950895089508959B
:1019100008950895089588E40E94A60981E19EE053
:101920000C94B40990937900809378000895909373
:1019300077008093760008959093750080937400EB
:1019400008959093730080937200089590937100AE
:1019500080937000089590936F0080936E000895B7
:1019600090936D0080936C00089528E142EF52E05F
:1019700063E08AE00E949F0A8091F202809316033E
:101980008091F30280931C038091F40280931703EB
:101990008091F502809329038091F60280930B03D6
:1019A0008091F70280930A032091F8028091F90256
:1019B00090E0982F8827820F911D909328038093A1
:1019C00027032091FA028091FB0290E0982F88274C
:1019D000820F911D90932203809321032091FC029A
:1019E0008091FD0290E0982F8827820F911D90939F
:1019F0001B0380931A032091FE028091FF0290E066
:101A0000982F8827820F911D90931F0380931E03A8
:101A1000209100038091010390E0982F8827820F86
:101A2000911D90932E0380932D03209102038091AA
:101A3000030390E0982F8827820F911D909326032F
:101A400080932503209104038091050390E0982F53
:101A50008827820F911D90932C0380932B03209154
:101A600006038091070390E0982F8827820F911D2D
:101A7000909324038093230320910803809109030A
:101A800090E0982F8827820F911D909319038093DF
:101A90001803089524E042EF52E06DE08AE00E94CE
:101AA0009F0A2091F2028091F30290E0982F8827FC
:101AB000820F911D90931B0380931A032091F402CF
:101AC0008091F50290E0982F8827820F911D9093C6
:101AD0001F0380931E03089580911E0281110BC085
:101AE000829B09C081E080931E0223E040E060E019
:101AF0008AE00C94720A08951F93CF93DF9300D06D
:101B0000CDB7DEB7811186C063E08FE293E00E941B
:101B1000CF0980912F0310911F02182780931F0275
:101B2000912F907679F085FB992790F990931D037A
:101B300086FB882780F980932003E0917200F09162
:101B400073000995812F867089F080911F0281FBB7
:101B5000992790F99093F10282FB882780F980936E
:101B60002A03E0917800F0917900099513FF17C0DE
:101B70006BE18AE00E94510B42E0BE016F5F7F4F34
:101B80008AE00E94E80A898120E4829FC001112432
:101B90002A81E0917400F0917500822B099510FF65
:101BA0001DC065E18AE00E94510B42E0BE016F5FFB
:101BB0007F4F8AE00E94E80A8A8190E0982F882768
:101BC0002981822B90932C0380932B0380911F02F9
:101BD000E0917000F091710081700995809130035F
:101BE0008093420283FF05C0E0916E00F0916F0088
:101BF0000995809131038093220280911F0287FF13
:101C000005C0E0917600F0917700099510921E02D0
:101C100081E001C080E00F900F90DF91CF911F9184
:101C200008950C947C0D06B600FE03C00E94E809DE
:101C3000FACF8091D4018111F9CF86E090E00E9423
:101C4000FB060E946C0D06B600FE03C00E94E80968
:101C5000FACF8091D4018111F9CF08950F93062F07
:101C6000282F45E060E08AE00E94BA0B06B600FE2D
:101C700003C00E94E809FACF8091D4018111F9CF05
:101C80000F910895282F46E060E08AE00E94920BB1
:101C900006B600FE03C00E94E809FACF8091D40185
:101CA0008111F9CF089544E060E08AE00E946F0B53
:101CB0000C94130ECF93DF931F92CDB7DEB7109223
:101CC0000C0398E090930D0380930E0360930F0331
:101CD000509310034093110346E06CE073E08AE0F8
:101CE00029830E94E60B0E94130E2981222349F0CA
:101CF0008091220280FD05C00E946C0D0E94E809BF
:101D0000F7CF0F90DF91CF910895CF93DF931F927C
:101D1000CDB7DEB710920C0397E090930D0380933C
:101D20000E0360930F03509310034093110346E09A
:101D30006CE073E08AE029830E94E60B0E94130E98
:101D40002981222349F08091220280FD05C00E9452
:101D50006C0D0E94E809F7CF0F90DF91CF910895A5
:101D60002091230243E060E08AE00C94920B809380
:101D700023020C94B00ECF93DF9300D000D000D09C
:101D8000CDB7DEB70E944F080E948B0C89E890E027
:101D90000E94B90988E990E00E94AB0CA298A39830
:101DA000A598D5989A9B03C086EA90E002C086E980
:101DB00090E00E948C089B9B03C085E890E002C0E5
:101DC00085E790E00E948C089D9B03C084E690E02C
:101DD00002C084E590E00E948C088091B902816085
:101DE0008093B9028091B90282608093B90222E0A7
:101DF00049E060E08AE00E94920B21E04BE060E065
:101E00008AE00E94920B21E04CE060E08AE00E94B0
:101E1000920B86E394E00E94920C0E94060280E0FE
:101E20000E94420E0E946C0D0E94E8098091BA0245
:101E30009091BB028D32914030F00E94D3001092FD
:101E4000BB021092BA028091CB01811122C00E9484
:101E5000C7056CE38CE30E942E0E8091BC0290912A
:101E6000BD02853F9140F0F20E94B50C60912903BC
:101E7000809117030E94720149815A816B817C8194
:101E80008D819E810E9444021092BD021092BC027C
:101E9000C9CF8091CA01811107C00E94320380938B
:101EA000CA010E94FF03BECF0E94530EBBCF04D0D5
:101EB0006894B1118DC0089570D088F09F5790F04C
:101EC000B92F9927B751A0F0D1F0660F771F881F5F
:101ED000991F1AF0BA95C9F712C0B13081F077D0C6
:101EE000B1E0089574C0672F782F8827B85F39F064
:101EF000B93FCCF3869577956795B395D9F73EF4BE
:101F000090958095709561957F4F8F4F9F4F089565
:101F1000E89409C097FB3EF4909580957095619583
:101F20007F4F8F4F9F4F9923A9F0F92F96E9BB2739
:101F30009395F695879577956795B795F111F8CFB5
:101F4000FAF4BB0F11F460FF1BC06F5F7F4F8F4F20
:101F50009F4F16C0882311F096E911C0772321F016
:101F60009EE8872F762F05C0662371F096E8862FAE
:101F700070E060E02AF09A95660F771F881FDAF705
:101F8000880F9695879597F9089557FD9058440FB7
:101F9000551F59F05F3F71F04795880F97FB991FC8
:101FA00061F09F3F79F08795089512161306140685
:101FB000551FF2CF4695F1DF08C016161706180612
:101FC000991FF1CF86957105610508940895E894ED
:101FD000BB2766277727CB0197F908950BD078C0E8
:101FE00069D028F06ED018F0952309F05AC05FC070
:101FF0001124EECFCADFA0F3959FD1F3950F50E0E7
:10200000551F629FF001729FBB27F00DB11D639FAA
:10201000AA27F00DB11DAA1F649F6627B00DA11D50
:10202000661F829F2227B00DA11D621F739FB00DF6
:10203000A11D621F839FA00D611D221F749F332766
:10204000A00D611D231F849F600D211D822F762FFF
:102050006A2F11249F5750408AF0E1F088234AF0FC
:10206000EE0FFF1FBB1F661F771F881F9150504048
:10207000A9F79E3F510570F014C0AACF5F3FECF363
:10208000983EDCF3869577956795B795F795E79534
:102090009F5FC1F7FE2B880F911D9695879597F945
:1020A000089597F99F6780E870E060E008959FEFDA
:1020B00080EC089500240A941616170618060906DF
:1020C000089500240A9412161306140605060895AE
:1020D000092E0394000C11F4882352F0BB0F40F436
:1020E000BF2B11F460FF04C06F5F7F4F8F4F9F4F76
:1020F0000895AA1BBB1B51E107C0AA1FBB1FA6174F
:10210000B70710F0A61BB70B881F991F5A95A9F7A0
:1021100080959095BC01CD010895FB019F01E89445
:102120004230C4F04532B4F44A3029F497FB1EF42F
:10213000909581959F4F642F77270E947910805D3D
:102140008A330CF0895D8193CB010097A1F716F4D7
:102150005DE251931082C9010C94AE10DC01FC01C8
:10216000672F71917723E1F7329704C07C916D93CB
:1021700070836291AE17BF07C8F30895F894FFCF3C
:102180000F0F6F046E046D04A509A4098A0C890C55
:10219000880C870C860C850C840C62746E3A2020A7
:1021A00020202074696D65733A00202020202020B3
:1021B000202000427574746F6E2032207072657337
:1021C00073656420002074696D65732E0042757418
:1021D000746F6E20332070726573736564200042E3
:1021E0007574746F6E20352070726573736564202A
:1021F00000496E6465782000206368616E676564DD
:102200002E00206C6566743A20002053706565646A
:1022100020002072696768743A200020583A200034
:10222000204779726F3A200020593A2000205A3A0C
:10223000200041766572616765206C656674207365
:10224000706565643A200041766572616765207249
:10225000696768742073706565643A20004176652B
:10226000726167652073706565643A200041766528
:10227000726167653A200020636D2F7300477958BB
:102280003A20004779593A200047795A3A200053BA
:10229000454E44494E4720544F2041524455494EE3
:1022A0004F0A0042756D706572206368616E6765E4
:1022B000640A0042756D70657220776173207072D8
:1022C00065737365640A0042756D7065722077618D
:0C22D000732072656C65617365640A0020
:00000001FF
