:100000000C946A000C94D7030C9403040C942F04F2
:100010000C9487000C9487000C9487000C94870044
:100020000C9487000C9487000C948C050C9487002A
:100030000C9487000C9477080C9487000C9487002C
:100040000C9487000C9487000C9487000C94770B19
:100050000C9487000A0A504335206973204C4F578F
:10006000210A0A000A0A504335206973204849478B
:1000700048210A0A000A0A504333206973204C4F72
:1000800057210A0A000A0A5043332069732048495D
:100090004748210A0A000A0A504332206973204C5B
:1000A0004F57210A0A000A0A504332206973204838
:1000B000494748210A0A0023000A49324320455291
:1000C000524F52202D205457492053544154453A01
:1000D0002030780011241FBECFE5D8E0DEBFCDBFB1
:1000E00011E0A0E6B0E0ECE3F1E202C005900D9271
:1000F000AC3BB107D9F713E0ACEBB1E001C01D9206
:10010000A533B107E1F70E941D0E0C949C100C94CE
:100110000000CF93C82F89EB90E00E94EE0760E1CA
:100120008C2F90E00E941A088AE0CF910C94DE0791
:100130008091BC01882341F041E06EE080E00E94A4
:10014000A4071092BC0108956EE080E00E94B306FF
:1001500087EB90E00E94070781E08093BC0108953F
:100160001F93CF93DF93182FEB010E94F90660E0F5
:1001700080E00E94B3068AE790E00E94320760E0C8
:1001800081E00E94B3066AE0812F90E00E943E0762
:100190008AE890E00E9432076AE0CE01DF91CF91B9
:1001A0001F910C943E078093390260933A02EAE172
:1001B000F2E0828193818193919382E0E633F807A4
:1001C000C1F78091390290913A029093370280935F
:1001D0003602089520916000EAE1F2E060E080E0FC
:1001E00090E0621731F03081830F911D6F5F32967E
:1001F000F8CF70E00E945710CB0108952091600065
:10020000EBE1F2E060E080E090E0621731F03081F5
:10021000830F911D6F5F3296F8CF70E00E945710E8
:10022000CB010895FF920F931F93CF93DF9381ED3E
:1002300090E00E94E2078091BD0190E06AE00197A2
:100240000E941A0888ED90E00E94E2078AE00E946E
:10025000DE07F12C80916000F81670F58BEE90E0CF
:100260000E94E2070F2D10E06AE0C8010E941A0800
:1002700082EE90E00E94E207E801CC0FDD1FC65E2F
:10028000DD4F88816AE090E00E941A088AEE90E0D3
:100290000E94E2076AE0C8010E941A0882EF90E01B
:1002A0000E94E20789816AE090E00E941A088AE0D1
:1002B0000E94DE07F394CECF8AE00E94DE078AE038
:1002C000DF91CF911F910F91FF900C94DE0740E0DA
:1002D0006BE480ED0C94D10ACF93DF93EC0163E4DF
:1002E00080ED0E94B30A81ED0E94860A888364E44F
:1002F00080ED0E94B30A81ED0E94860A898365E43D
:1003000080ED0E94B30A81ED0E94860A8A8366E42A
:1003100080ED0E94B30A81ED0E94860A8B8367E418
:1003200080ED0E94B30A81ED0E94860A8C8368E406
:1003300080ED0E94B30A81ED0E94860A8D8381E0E0
:100340008093BE01DF91CF910895CF93DF9300D0CA
:1003500000D000D0CDB7DEB749835A836B837C834E
:100360008D839E838091AF0281608093AF02CE0126
:1003700001960E946C018091BF0196E0989FD00188
:100380001124A55CBD4FFE01319601900D929A9506
:10039000E1F78F5F8093BF0190916100891302C0E4
:1003A0001092BF011092B1021092B0028091BE0172
:1003B0008823E9F0CE0101960E946C0181E492E06D
:1003C00026E0DC011697FC01322F01900D923A9540
:1003D000E1F7069632E08539930799F786E0FE014A
:1003E0003196AFE8B2E001900D928A95E1F7109254
:1003F000BE0126960FB6F894DEBF0FBECDBFDF91CB
:10040000CF910895EF92FF920F931F93CF93DF93B5
:1004100081ED90E00E94E2078091BF01882321F0E6
:1004200090E06AE0019703C06AE080E090E00E94FB
:100430001A0888ED90E00E94E2078AE00E94DE0739
:10044000E12C56E0F52E80916100E81608F05FC0BF
:1004500081E091E00E94E2070E2D10E06AE0C80101
:100460000E941A088BEF90E00E94E207F09EE001E4
:10047000F19ED00D1124C55CDD4F2881332727FD67
:100480003095322F22278981992787FD90956AE040
:10049000822B932B0E941A0880E091E00E94E207D1
:1004A0006AE0C8010E941A0888E091E00E94E20711
:1004B0002A81332727FD3095322F22278B819927D8
:1004C00087FD90956AE0822B932B0E941A0880E0AA
:1004D00091E00E94E2076AE0C8010E941A088DE0DC
:1004E00091E00E94E2072C81332727FD3095322FBF
:1004F00022278D81992787FD90956AE0822B932B87
:100500000E941A088AE00E94DE07E3949CCF8AE0EA
:100510000E94DE078AE0DF91CF911F910F91FF903B
:10052000EF900C94DE07AF92BF92CF92DF92EF92E2
:10053000FF920F931F93CF93DF930E94EA008C01E9
:100540000E94FE005C01EC01C00FD11FD695C7953B
:1005500085E08C9FB0018D9F700D112480E090E0AC
:100560000E94660F2DEC3CEC4CEC5CE30E94CC0F3F
:100570006B017C0182E191E00E94E2076AE0C80120
:100580000E941A088AE00E94DE0787E291E00E943A
:10059000E2076AE0C5010E941A088AE00E94DE07AD
:1005A0008DE391E00E94E2076AE0CE010E941A0802
:1005B0008AE00E94DE078DE491E00E94E207C70115
:1005C000B6010E94350FDC01CB016AE00E941A08D7
:1005D00087E591E00E94E2078AE00E94DE078AE058
:1005E0000E94DE07C0929602D0929702E092980293
:1005F000F09299028091950280939A0281E090E0B6
:1006000090939C0280939B028DE591E00E94E2070B
:1006100020918F02332727FD3095322F222780919A
:100620009002992787FD90956AE0822B932B0E9478
:100630001A088AE00E94DE078AE00E94DE0783E64D
:1006400091E00E94E20720919102332727FD309527
:10065000322F222780919202992787FD90956AE098
:10066000822B932B0E941A088AE00E94DE078AE000
:100670000E94DE0789E691E00E94E2072091930242
:10068000332727FD3095322F222780919402992716
:1006900087FD90956AE0822B932B0E941A088AE0CE
:1006A0000E94DE078AE00E94DE0781E090E0DF9191
:1006B000CF911F910F91FF90EF90DF90CF90BF905F
:1006C000AF9008958FE691E00E94E2076091960254
:1006D0007091970280919802909199020E943A0F2E
:1006E000462F61E084E50E94D10A2091900240915A
:1006F0008F0262E084E50E94F40A20919202409108
:10070000910263E084E50E94F40A209194024091F2
:10071000930264E084E50E94F40A40919A0265E045
:1007200084E50E94D10A40919B0266E084E50C9426
:10073000D10A83E891E00E94E2078091C101811112
:1007400025C083E991E00E94E2078091E7028111D0
:1007500004C080912003882311F081E00BC09A9B94
:1007600002C084E007C09B9B02C083E003C09D9B46
:1007700003C082E0809395028FE00E94190E81E011
:100780008093C1010E9412010C94020287EA91E059
:100790000E94E2071092C1011092C00108950895CD
:1007A00008950895909367008093660008951F92BE
:1007B0000F920FB60F9211242F933F934F935F9395
:1007C0006F937F938F939F93AF93BF93EF93FF9319
:1007D000E0916600F09167000995FF91EF91BF915C
:1007E000AF919F918F917F916F915F914F913F91C9
:1007F0002F910F900FBE0F901F901895909365004A
:100800008093640008951F920F920FB60F921124E7
:100810002F933F934F935F936F937F938F939F9308
:10082000AF93BF93EF93FF93E0916400F091650065
:100830000995FF91EF91BF91AF919F918F917F911A
:100840006F915F914F913F912F910F900FBE0F903D
:100850001F901895909363008093620008951F92F3
:100860000F920FB60F9211242F933F934F935F93E4
:100870006F937F938F939F93AF93BF93EF93FF9368
:10088000E0916200F09163000995FF91EF91BF91B3
:10089000AF919F918F917F916F915F914F913F9118
:1008A0002F910F900FBE0F901F90189536990AC088
:1008B000806487B986ED86B93699FECF349A84B1C3
:1008C00095B1089580E090E008958FB9779BFECFB1
:1008D00008958FEF0E9465048FB10895CF93DF9341
:1008E0000E946904C82FD0E0DC2FCC270E94690445
:1008F0009E01282BC901DF91CF910895CF93C82F76
:10090000892F0E9465048C2FCF910C946504282FA9
:10091000FC018E2F821B861728F481918FB9779B5B
:10092000FECFF7CF0895282FFC019FEF8E2F821B5B
:10093000861730F49FB9779BFECF8FB18193F6CFA6
:100940000895CF93DF93EC01C09883E00E94650483
:10095000CE010E947E040E946904C09ADF91CF916B
:100960000895EF92FF920F931F93CF93DF931F92FF
:10097000CDB7DEB77C018B01C09883E049830E942C
:100980006504C7010E947E044981642FC8010E944A
:100990009304C09A0F90DF91CF911F910F91FF9018
:1009A000EF900895C09886E00E946504C09A08956B
:1009B000C09884E00E946504C09A0895C09885E0BC
:1009C0000E9465040E946904C09A08951F93CF9302
:1009D000DF93EC01162F0E94DE0480FDFCCF0E9405
:1009E000D204C09882E00E946504CE010E947E0479
:1009F000812F0E946504C09ADF91CF911F910895C5
:100A0000FF920F931F93CF93DF93EC018B01F42E92
:100A10000E94DE0480FDFCCF0E94D204C09882E0D8
:100A20000E946504CE010E947E046F2DC8010E94C1
:100A30008704C09ADF91CF911F910F91FF90089585
:100A40008091C0020E946504949A0000000094986E
:100A500008958F709091C002907F982B9093C00260
:100A60000C942005CF93DF9381E00E945604EC01A3
:100A7000CC3F83E0D80788F400000000000081E04C
:100A80000E945604C80FD91FD695C795C233D10509
:100A900088F0C43482E0D80778F0CC3B82E0D807F5
:100AA00068F0C63183E0D80758F0CE33D34050F415
:100AB00085E009C081E007C082E005C083E003C093
:100AC00084E001C080E0DF91CF9108958091C3015F
:100AD000882339F00E943205811108C01092C301A9
:100AE00008950E9432058093C301089580E008951F
:100AF000CF93C091C201CC2341F00E9432058111F5
:100B000008C01092C2018C2F05C00E94320580934C
:100B1000C20180E0CF9108951F920F920FB60F92FD
:100B200011248F939F938091160290911702019642
:100B300090931702809316028091C1028F5F809379
:100B4000C1028091C20291E0980F9093C202893055
:100B500008F484C08091AF0280FF09C08091B00288
:100B60009091B10201969093B1028093B00280916E
:100B7000AF0281FF09C08091B2029091B302019649
:100B80009093B3028093B2028091AF0282FF09C0BA
:100B90008091B4029091B50201969093B502809332
:100BA000B4028091AF0283FF09C08091B602909198
:100BB000B70201969093B7028093B6028091AF027C
:100BC00084FF09C08091B8029091B9020196909378
:100BD000B9028093B8028091AF0285FF09C080916D
:100BE000BA029091BB0201969093BB028093BA0225
:100BF0008091AF0286FF09C08091BC029091BD0236
:100C000001969093BD028093BC028091AF0287FF52
:100C100009C08091BE029091BF0201969093BF02DD
:100C20008093BE0280919D0280FF16C08091C30216
:100C30009091C402892B39F415BC80919D028E7F5E
:100C400080939D0209C08091C3029091C4020197D4
:100C50009093C4028093C3021092C2029F918F911D
:100C60000F900FBE0F901F90189590919D0291606C
:100C700090939D027093C4026093C302809583BDDC
:100C80008EE185BD089590919D029E7F90939D0277
:100C9000982F909593BD882319F08EE185BD089516
:100CA00015BC08951092C10290E001962091C102F6
:100CB00030E082179307D4F70895CF93DF93EC01C8
:100CC000209729F08AE00E9452062197F9CFDF9100
:100CD000CF910895D09AD89881E090E00E945D0667
:100CE000D0980895CF93DF9300D0CDB7DEB780E0E2
:100CF0000E9456048530910530F089839A830E94C2
:100D00006A069A8189810F900F90DF91CF910895A3
:100D1000019710F00000FCCF08958295807F90919C
:100D2000C0029F70982B9093C0020E942005C49A25
:100D300082E390E00E948806C4980895CF93C82F5C
:100D400082958F700E948D068C2F0E948D0686E9F9
:100D500090E0CF910C948806C3980E949E0686E985
:100D600090E00C9488066068813009F4605C862FFE
:100D70000C94AC0683E00E948D0680E596E40E9408
:100D8000880683E00E948D068CE795E10E94880624
:100D900083E00E948D068CE795E10E94880682E040
:100DA0000E948D068CE795E10E94880688E20E94E9
:100DB000AC068CE795E10E94880688E00E94AC06AC
:100DC0008CE795E10E94880681E00E94AC068CE7E2
:100DD00095E10E94880682E00E94AC068CE795E1CE
:100DE0000E9488068CE00E94AC068CE795E10C948A
:100DF000880681E00E94AC068CE795E10C94880699
:100E0000C39A0E949E0682E390E00C948806CF93DA
:100E1000DF93FC018491EF012196882321F00E9449
:100E20000007FE01F7CFDF91CF9108950F931F9335
:100E3000CF93DF9300D0CDB7DEB78B0189839A8340
:100E40000E94F90689819A810E94070780EC0E941E
:100E5000AC06C8010F900F90DF91CF911F910F91B9
:100E60000C940707CF93DF93EC018991882319F045
:100E70000E940007FACFDF91CF910895462F50E0EE
:100E80006EE972E00E946B108EE992E00C943207DA
:100E90000F931F93CF93DF931F92CDB7DEB78C01D3
:100EA000040F111DF80181918F01882341F0662301
:100EB00031F069830E94000769816150F3CF0F9080
:100EC000DF91CF911F910F910895EF92FF920F93B1
:100ED0001F93CF93DF93CDB7DEB761970FB6F8942A
:100EE000DEBF0FBECDBFE42E462F50E08E010F5F58
:100EF0001F4FB8010E946B10F80101900020E9F724
:100F00003197E01BF10BFE2CFE1A1F1454F4FA94D7
:100F100080E30E940007F110FACFC8010E94320757
:100F200006C04F2D41956E2DC8010E94480761965D
:100F30000FB6F894DEBF0FBECDBFDF91CF911F91EA
:100F40000F91FF90EF900895CF93C42F0E94B306A6
:100F5000CC2329F080E20E940007C150F9CFCF9145
:100F600008951BBA87E088BB8CEF85BB81E682BB06
:100F70001ABA8BEB87BB14BA82E981BBF89410BC18
:100F800089E189B91BB886E880BD88E98AB917B8B4
:100F900086E186B910BE8FE085BF1BBE14BE8AE015
:100FA00083BF87EC8CBF15BC8FEF83BD82E089BF08
:100FB00080E58DB981E08EB9789408955D9BFECF70
:100FC0008CB90895CF93DF93EC018991882319F0B0
:100FD0000E94DE07FACFDF91CF910895CF93DF9380
:100FE000FC018491EF012196882321F00E94DE0705
:100FF000FE01F7CFDF91CF9108950F931F93CF9309
:10100000DF931F92CDB7DEB78C01040F111DF801DD
:1010100081918F01882341F0662331F069830E941A
:10102000DE0769816150F3CF0F90DF91CF911F915F
:101030000F910895CF93DF93CDB7DEB761970FB6C9
:10104000F894DEBF0FBECDBF462F50E0BE016F5FEC
:101050007F4F0E946B10CE0101960E94E2076196BD
:101060000FB6F894DEBF0FBECDBFDF91CF910895CC
:10107000EF92FF920F931F93CF93DF93CDB7DEB71D
:1010800061970FB6F894DEBF0FBECDBFE42E462F9A
:1010900050E08E010F5F1F4FB8010E946B10F801E6
:1010A00001900020E9F73197E01BF10BFE2CFE1AAE
:1010B0001F1454F4FA9480E30E94DE07F110FACF73
:1010C000C8010E94E20706C04F2D41956E2DC80150
:1010D0000E94FD0761960FB6F894DEBF0FBECDBF2C
:1010E000DF91CF911F910F91FF90EF9008951F9284
:1010F0000F920FB60F9211242F938F939F93EF931C
:10110000FF939091C4018091C501292F281B2032A3
:10111000A8F4E091C60181E08E0F8093C601F0E053
:101120002CB1EA53FD4F20839F5F9093C40181321D
:1011300010F01092C6011092C50206C08CB18093C7
:10114000C90181E08093C502FF91EF919F918F913A
:101150002F910F900FBE0F901F9018951092C502FF
:101160008091C5019091C4019817A1F08F5F809381
:10117000C5018091C701813210F01092C701E09142
:10118000C70181E08E0F8093C701F0E0EA53FD4F65
:101190008081089580E008951092C502282FFC01F7
:1011A0008E2F821B9091C5013091C4013917B9F07F
:1011B0008617A8F49F5F9093C501A091C70181E0B5
:1011C0008A0F8093C701B0E0AA53BD4F8C918193E1
:1011D0008091C701813220F31092C701E1CF0895B9
:1011E0008091C4019091C501891B089557988CB1D5
:1011F0008093C8011092C7011092C6011092C501D8
:101200001092C4011092C502579A08950895089546
:10121000F89480B911B88FEF83B984E086BF8091CC
:10122000D10181608093D1017894089590936B00EF
:1012300080936A00089590936900809368000895F0
:10124000CF93DF931F92CDB7DEB786E9898389817B
:101250009FEF980F99838111FACF0F90DF91CF9173
:10126000089506B600FCFDCF2091D10120FF0BC0F0
:1012700025ED31E0FC01D9018A2F821B861718F475
:101280008D918193F9CF089506B600FCFDCF809132
:10129000D001089506B600FC5EC08091D10180FFA8
:1012A00042C08091CA01882309F455C0813091F46D
:1012B0000E94200982E08093D3019091CF01909306
:1012C00004029091CE01909305021092D10195EA0B
:1012D00096BF15C08230B1F40E9420098091CD01E3
:1012E0008F5F8093D3018091CF0181608093CF0184
:1012F000809304021092D10185EA86BF83E0809337
:10130000CA010895833039F51092CA018091CB014A
:101310009091CC018F3F2FEF9207E9F0E0916A00A6
:10132000F0916B0017C00E9444098823A1F010922D
:10133000CA019091D10191609093D1011092CF0197
:101340001092CC011092CB011092CD01E091680077
:10135000F091690009940895CF93DF9300D01F9214
:10136000CDB7DEB706B600FE09C04B836A8389831A
:101370000E944A0989816A814B81F4CF9091CA0108
:101380009111F3CF92E09093CA018093CF0170E066
:101390007093CC016093CB014093CD010F900F90DF
:1013A0000F90DF91CF910895CF93DF9300D000D0BD
:1013B000CDB7DEB706B600FE0BC02C834B836A8325
:1013C00089830E944A0989816A814B812C81F2CFED
:1013D0009091CA019111F1CF91E09093CA0170E010
:1013E0007093CC016093CB018093CF014093CE01E9
:1013F0002093CD010F900F900F900F90DF91CF9120
:101400000895EF92FF921F93CF93DF9300D0CDB753
:10141000DEB77A01122F06B600FE07C06A83898301
:101420000E944A0989816A81F6CF9091CA0191117F
:10143000F5CF91E09093CA018093CF018FEF9FEF9A
:101440009093CC018093CB016093CE011093CD019A
:1014500006B600FE03C00E944A09FACF8091CA0175
:101460008111F9CF8091D10180FF0CC061E0610F43
:10147000C7010F900F90DF91CF911F91FF90EF90D8
:101480000C9431090F900F90DF91CF911F91FF9035
:10149000EF9008950F931F93CF93DF93082FEB01E5
:1014A000142F06B600FE03C00E944A09FACF8091AD
:1014B000CA018111F9CF0E94200982E08093CA01FC
:1014C0000093CF018FEF9FEF9093CC018093CB01DE
:1014D0001093CD0106B600FE03C00E944A09FACF60
:1014E0008091CA018111F9CF8091D10180FF09C09B
:1014F00061E0610FCE01DF91CF911F910F910C94AC
:101500003109DF91CF911F910F910895CF93C82F8B
:1015100006B600FE03C00E944A09FACF8091CA01B4
:101520008111F9CF0E94200982E08093CA01C09303
:10153000CF018FEF9FEF9093CC018093CB0181E09F
:101540008093CD018091CA01882319F00E944A0935
:10155000F9CF8091D10180FF03C08091D50101C0F6
:1015600080E0CF910895CF93DF93D82FC62F06B692
:1015700000FE03C00E944A09FACF8091CA0181117E
:10158000F9CF0E94200982E08093D301D093040216
:10159000C09305021092D10185EA86BFDF91CF91F9
:1015A00008951F93CF93DF93182FD62FC42F06B61D
:1015B00000FE03C00E944A09FACF8091CA0181113E
:1015C000F9CF0E94200983E08093D3011093040295
:1015D000D0930502C09306021092D10185EA86BF1E
:1015E000DF91CF911F9108950F931F93CF93DF93B6
:1015F000082F162FD42FC22F06B600FE03C00E945C
:101600004A09FACF8091CA018111F9CF0E942009BD
:1016100084E08093D3010093040210930502D093D9
:101620000602C09307021092D10185EA86BFDF91BE
:10163000CF911F910F910895FF920F931F93CF9316
:10164000DF93F82E162FD42FC22F06B600FE03C04C
:101650000E944A09FACF8091CA018111F9CF0E94F4
:10166000200985E08093D301F092040210930502D3
:10167000D0930602C0930702009308021092D10192
:1016800085EA86BFDF91CF911F910F91FF9008955A
:101690000F931F93CF93DF93182FD62FC72F042FAD
:1016A00006B600FE03C00E944A09FACF8091CA0123
:1016B0008111F9CF0E94200941E0400F4093D301EE
:1016C00010930402ED2FFC2F85E092E0DC012A2F1D
:1016D000281B241718F421912D93F9CF1092D101D2
:1016E00085EA86BFDF91CF911F910F9108951F92D8
:1016F0000F920FB60F9211242F933F938F939F93C6
:10170000EF93FF9381B1883211F140F48031E9F019
:101710008831E9F0883009F049C017C0803491F170
:1017200040F4883309F042C081B18093D00185EA4A
:1017300041C08035E1F08835C9F583B1E091D2012F
:10174000F0E0EC52FE4F80832BC01092D201E0916A
:10175000D2018091D301E81718F581E08E0F8093B4
:10176000D201F0E0EC5FFD4F808183B917C0E091BA
:10177000D20181E08E0F8093D20183B1F0E0EC5270
:10178000FE4F80832091D20130E08091D30190E020
:1017900001972817390714F485EC0CC085E80AC0B6
:1017A0008091D10181608093D10103C081B1809388
:1017B000D00184E986BFFF91EF919F918F913F9176
:1017C0002F910F900FBE0F901F90189508950895B8
:1017D0000895089508950895089588E40E940809D9
:1017E00083E79DE00C94160990937900809378002C
:1017F00008959093770080937600089590937500F4
:1018000080937400089590937300809372000895FC
:101810009093710080937000089590936F0080936F
:101820006E00089590936D0080936C00089528E1F8
:1018300048EE52E063E08AE00E94010A8091E802EB
:1018400080930C038091E902809312038091EA0255
:1018500080930D038091EB0280931F038091EC0233
:10186000809301038091ED02809300032091EE02AA
:101870008091EF0290E0982F8827820F911D90931E
:101880001E0380931D032091F0028091F10290E0ED
:10189000982F8827820F911D909318038093170328
:1018A0002091F2028091F30290E0982F8827820F16
:1018B000911D90931103809310032091F402809165
:1018C000F50290E0982F8827820F911D90931503C1
:1018D000809314032091F6028091F70290E0982FF4
:1018E0008827820F911D90932403809323032091D6
:1018F000F8028091F90290E0982F8827820F911DBD
:1019000090931C0380931B032091FA028091FB02A9
:1019100090E0982F8827820F911D90932203809347
:1019200021032091FC028091FD0290E0982F8827EE
:10193000820F911D90931A03809319032091FE0248
:101940008091FF0290E0982F8827820F911D90933D
:101950000F0380930E03089524E048EE52E06DE0FB
:101960008AE00E94010A2091E8028091E90290E059
:10197000982F8827820F911D909311038093100355
:101980002091EA028091EB0290E0982F8827820F45
:10199000911D909315038093140308958091140270
:1019A00081110BC0829B09C081E08093140223E067
:1019B00040E060E08AE00C94D40908951F93CF932F
:1019C000DF9300D0CDB7DEB7811186C063E085E23A
:1019D00093E00E9431098091250310911502182788
:1019E00080931502912F907679F085FB992790F9D5
:1019F0009093130386FB882780F980931603E09168
:101A00007200F09173000995812F867089F08091A2
:101A1000150281FB992790F99093E70282FB8827B2
:101A200080F980932003E0917800F0917900099586
:101A300013FF17C06BE18AE00E94B30A42E0BE01C7
:101A40006F5F7F4F8AE00E944A0A898120E4829F6B
:101A5000C00111242A81E0917400F0917500822B5D
:101A6000099510FF1DC065E18AE00E94B30A42E0BB
:101A7000BE016F5F7F4F8AE00E944A0A8A8190E030
:101A8000982F88272981822B90932203809321030A
:101A900080911502E0917000F091710081700995BC
:101AA000809126038093380283FF05C0E0916E0089
:101AB000F0916F000995809127038093180280911F
:101AC000150287FF05C0E0917600F0917700099537
:101AD0001092140281E001C080E00F900F90DF911E
:101AE000CF911F9108950C94DE0C06B600FE03C042
:101AF0000E944A09FACF8091CA018111F9CF86E08C
:101B000090E00E945D060E94CE0C06B600FE03C067
:101B10000E944A09FACF8091CA018111F9CF089534
:101B20000F93062F282F45E060E08AE00E941C0BEF
:101B300006B600FE03C00E944A09FACF8091CA018E
:101B40008111F9CF0F910895282F46E060E08AE0D7
:101B50000E94F40A06B600FE03C00E944A09FACFAA
:101B60008091CA018111F9CF089544E060E08AE0D4
:101B70000E94D10A0C94750DCF93DF931F92CDB7BD
:101B8000DEB71092020398E090930303809304035E
:101B900060930503509306034093070346E062E019
:101BA00073E08AE029830E94480B0E94750D298109
:101BB000222349F08091180280FD05C00E94CE0CBE
:101BC0000E944A09F7CF0F90DF91CF910895CF93EC
:101BD000DF931F92CDB7DEB71092020397E0909388
:101BE000030380930403609305035093060340931B
:101BF000070346E062E073E08AE029830E94480B15
:101C00000E94750D2981222349F08091180280FDE0
:101C100005C00E94CE0C0E944A09F7CF0F90DF91B9
:101C2000CF9108952091190243E060E08AE00C947E
:101C3000F40A809319020C94120ECF93DF9300D014
:101C400000D000D0CDB7DEB70E94B1070E94ED0BE7
:101C500089E890E00E941B0988E990E00E940D0C41
:101C6000A298A398A5989A9B03C086EA90E002C028
:101C700086E990E00E94EE079B9B03C085E890E018
:101C800002C085E790E00E94EE079D9B03C084E6BA
:101C900090E002C084E590E00E94EE078091AF02E0
:101CA00081608093AF028091AF0282608093AF0227
:101CB00022E049E060E08AE00E94F40A21E04BE083
:101CC00060E08AE00E94F40A21E04CE060E08AE0F3
:101CD0000E94F40A89E993E00E94F40B0E946701D4
:101CE00080E00E94A40DA12CB12CE12CF12C00E08D
:101CF00010E0712C812C912C0E94CE0C0E944A097C
:101D00008091B0029091B1028D32914008F478C078
:101D100083B38470C82ED12CC016D10609F10E945D
:101D200099039A9B17C09394092D10E0B80182E0A3
:101D30000E94B00083E990E00E94E2076AE0C801D7
:101D40000E941A0885EA90E00E94E20781E891E08B
:101D50000E94E20783B38470C82ED12C87014AC049
:101D600003B3087010E00E151F05F9F00E949903E7
:101D70009B9B17C08394082D10E0B80183E00E945C
:101D8000B0008DEA90E00E94E2076AE0C8010E947C
:101D90001A0885EA90E00E94E20781E891E00E943B
:101DA000E20703B3087010E025C083B3807290E0AF
:101DB0008A159B05F9F00E9499039D9B17C07394A7
:101DC000E72CF12CB70185E00E94B0008FEB90E08A
:101DD0000E94E2076AE0C7010E941A0885EA90E0C3
:101DE0000E94E20781E891E00E94E20783B38072DB
:101DF000A82EB12C1092B1021092B0027801860187
:101E00008091C101811123C00E9429056CE38CE3FC
:101E10000E94900D8091B2029091B302853F914053
:101E200008F46ACF0E94170C60911F0380910D0384
:101E30000E94D30049815A816B817C818D819E8172
:101E40000E94A5011092B3021092B20255CF809168
:101E5000C001811107C00E9493028093C0010E94BB
:101E600062034ACF0E94B50D47CF04D06894B111E8
:101E70008DC0089570D088F09F5790F0B92F9927A2
:101E8000B751A0F0D1F0660F771F881F991F1AF085
:101E9000BA95C9F712C0B13081F077D0B1E008959A
:101EA00074C0672F782F8827B85F39F0B93FCCF31B
:101EB000869577956795B395D9F73EF4909580957B
:101EC000709561957F4F8F4F9F4F0895E89409C09B
:101ED00097FB3EF490958095709561957F4F8F4F5D
:101EE0009F4F9923A9F0F92F96E9BB279395F69573
:101EF000879577956795B795F111F8CFFAF4BB0FF1
:101F000011F460FF1BC06F5F7F4F8F4F9F4F16C054
:101F1000882311F096E911C0772321F09EE8872FDE
:101F2000762F05C0662371F096E8862F70E060E09A
:101F30002AF09A95660F771F881FDAF7880F969513
:101F4000879597F9089557FD9058440F551F59F0FC
:101F50005F3F71F04795880F97FB991F61F09F3F96
:101F600079F087950895121613061406551FF2CFBF
:101F70004695F1DF08C0161617061806991FF1CF0F
:101F800086957105610508940895E894BB27662736
:101F90007727CB0197F908950BD078C069D028F046
:101FA0006ED018F0952309F05AC05FC01124EECF0F
:101FB000CADFA0F3959FD1F3950F50E0551F629FA4
:101FC000F001729FBB27F00DB11D639FAA27F00D92
:101FD000B11DAA1F649F6627B00DA11D661F829FB9
:101FE0002227B00DA11D621F739FB00DA11D621F9E
:101FF000839FA00D611D221F749F3327A00D611DBB
:10200000231F849F600D211D822F762F6A2F11249C
:102010009F5750408AF0E1F088234AF0EE0FFF1FEF
:10202000BB1F661F771F881F91505040A9F79E3F26
:10203000510570F014C0AACF5F3FECF3983EDCF37B
:10204000869577956795B795F795E7959F5FC1F763
:10205000FE2B880F911D9695879597F9089597F90E
:102060009F6780E870E060E008959FEF80EC08953E
:1020700000240A9416161706180609060895002467
:102080000A9412161306140605060895092E0394E1
:10209000000C11F4882352F0BB0F40F4BF2B11F455
:1020A00060FF04C06F5F7F4F8F4F9F4F0895AA1B43
:1020B000BB1B51E107C0AA1FBB1FA617B70710F033
:1020C000A61BB70B881F991F5A95A9F78095909565
:1020D000BC01CD010895FB019F01E8944230C4F09A
:1020E0004532B4F44A3029F497FB1EF4909581955B
:1020F0009F4F642F77270E945710805D8A330CF022
:10210000895D8193CB010097A1F716F45DE25193AD
:102110001082C9010C948C10DC01FC01672F7191B5
:102120007723E1F7329704C07C916D9370836291BD
:0C213000AE17BF07C8F30895F894FFCF66
:10213C000F0FD103D003CF0307090609EC0BEB0BF0
:10214C00EA0BE90BE80BE70BE60B62746E3A202006
:10215C0020202074696D65733A00202020202020F7
:10216C00202000427574746F6E203220707265737B
:10217C0073656420002074696D65732E004275745C
:10218C00746F6E2033207072657373656420004227
:10219C007574746F6E20352070726573736564206E
:1021AC0000496E6465782000206368616E67656421
:1021BC002E00206C6566743A2000205370656564AF
:1021CC0020002072696768743A200020583A200079
:1021DC00204779726F3A200020593A2000205A3A51
:1021EC00200041766572616765206C6566742073AA
:1021FC00706565643A20004176657261676520728E
:10220C00696768742073706565643A20004176656F
:10221C00726167652073706565643A20004176656C
:10222C00726167653A200020636D2F7300477958FF
:10223C003A20004779593A200047795A3A200053FE
:10224C00454E44494E4720544F2041524455494E27
:10225C004F0A0042756D706572206368616E676528
:10226C00640A0042756D706572207761732070721C
:10227C0065737365640A0042756D706572207761D1
:0C228C00732072656C65617365640A0064
:00000001FF
