:100000000C943B000C9462000C948E000C94BA008B
:100010000C9458000C9458000C9458000C94580000
:100020000C9458000C9458000C9417020C9458002F
:100030000C9458000C9402050C9458000C94580031
:100040000C9458000C9458000C9458000C949B0588
:100050000C9458000A0A504333206973204C4F57C0
:10006000210A0A000A0A504333206973204849478D
:1000700048210A0A000011241FBECFE5D8E0DEBFE8
:10008000CDBF10E0A0E6B0E0E8E1FDE002C00590E1
:100090000D92A238B107D9F711E0A2E8B0E001C093
:1000A0001D92AD31B107E1F70E9414060C948A0647
:1000B0000C9400000895089508959093650080932E
:1000C000640008951F920F920FB60F9211242F9380
:1000D0003F934F935F936F937F938F939F93AF93D0
:1000E000BF93EF93FF93E0916400F0916500099551
:1000F000FF91EF91BF91AF919F918F917F916F9100
:100100005F914F913F912F910F900FBE0F901F90D5
:100110001895909363008093620008951F920F9248
:100120000FB60F9211242F933F934F935F936F93CA
:100130007F938F939F93AF93BF93EF93FF93E09140
:100140006200F09163000995FF91EF91BF91AF912B
:100150009F918F917F916F915F914F913F912F91DF
:100160000F900FBE0F901F90189590936100809391
:10017000600008951F920F920FB60F9211242F93D3
:100180003F934F935F936F937F938F939F93AF931F
:10019000BF93EF93FF93E0916000F09161000995A8
:1001A000FF91EF91BF91AF919F918F917F916F914F
:1001B0005F914F913F912F910F900FBE0F901F9025
:1001C000189536990AC0806487B986ED86B9369944
:1001D000FECF349A84B195B1089580E090E00895FF
:1001E0008FB9779BFECF08958FEF0E94F0008FB1FB
:1001F0000895CF93DF930E94F400C82FD0E0DC2F46
:10020000CC270E94F4009E01282BC901DF91CF91D9
:100210000895CF93C82F892F0E94F0008C2FCF9183
:100220000C94F000282FFC018E2F821B861728F4D7
:1002300081918FB9779BFECFF7CF0895282FFC01CE
:100240009FEF8E2F821B861730F49FB9779BFECFCE
:100250008FB18193F6CF0895CF93DF93EC01C098CF
:1002600083E00E94F000CE010E9409010E94F40088
:10027000C09ADF91CF910895EF92FF920F931F9351
:10028000CF93DF931F92CDB7DEB77C018B01C0986F
:1002900083E049830E94F000C7010E94090149815F
:1002A000642FC8010E941E01C09A0F90DF91CF9168
:1002B0001F910F91FF90EF900895C09886E00E94E3
:1002C000F000C09A0895C09884E00E94F000C09A9F
:1002D0000895C09885E00E94F0000E94F400C09A42
:1002E00008951F93CF93DF93EC01162F0E946901AD
:1002F00080FDFCCF0E945D01C09882E00E94F0006A
:10030000CE010E940901812F0E94F000C09ADF9166
:10031000CF911F910895FF920F931F93CF93DF9377
:10032000EC018B01F42E0E94690180FDFCCF0E943C
:100330005D01C09882E00E94F000CE010E94090198
:100340006F2DC8010E941201C09ADF91CF911F91B9
:100350000F91FF9008958091B5000E94F000949A4B
:1003600000000000949808958F709091B500907FE0
:10037000982B9093B5000C94AB01CF93DF9381E061
:100380000E94E100EC01CC3F83E0D80788F4000034
:100390000000000081E00E94E100C80FD91FD6953F
:1003A000C795C233D10588F0C43482E0D80778F00D
:1003B000CC3B82E0D80768F0C63183E0D80758F01C
:1003C000CE33D34050F485E009C081E007C082E01D
:1003D00005C083E003C084E001C080E0DF91CF91DD
:1003E000089580918300882339F00E94BD01811116
:1003F00008C01092830008950E94BD01809383007D
:10040000089580E00895CF93C0918200CC2341F0FD
:100410000E94BD01811108C0109282008C2F05C07E
:100420000E94BD018093820080E0CF9108951F92C9
:100430000F920FB60F9211248F939F93809190008B
:1004400090919100019690939100809390008091FB
:10045000B6008F5F8093B6008091B70091E0980F4F
:100460009093B700893008F484C08091A40080FF85
:1004700009C08091A5009091A60001969093A600D6
:100480008093A5008091A40081FF09C08091A700FE
:100490009091A80001969093A8008093A700809166
:1004A000A40082FF09C08091A9009091AA00019642
:1004B0009093AA008093A9008091A40083FF09C0B3
:1004C0008091AB009091AC0001969093AC0080932A
:1004D000AB008091A40084FF09C08091AD00909191
:1004E000AE0001969093AE008093AD008091A40081
:1004F00085FF09C08091AF009091B0000196909364
:10050000B0008093AF008091A40086FF09C0809165
:10051000B1009091B20001969093B2008093B10027
:100520008091A40087FF09C08091B3009091B4002E
:1005300001969093B4008093B3008091920080FF65
:1005400016C08091B8009091B900892B39F415BC80
:10055000809192008E7F8093920009C08091B800B4
:100560009091B90001979093B9008093B8001092D0
:10057000B7009F918F910F900FBE0F901F9018950D
:10058000909192009160909392007093B900609363
:10059000B800809583BD8EE185BD0895909192004D
:1005A0009E7F90939200982F909593BD882319F089
:1005B0008EE185BD089515BC08951092B60090E0B7
:1005C00001962091B60030E082179307D4F7089582
:1005D000CF93DF93EC01209729F08AE00E94DD029F
:1005E0002197F9CFDF91CF910895D09AD89881E0E3
:1005F00090E00E94E802D0980895CF93DF9300D056
:10060000CDB7DEB780E00E94E1008530910530F083
:1006100089839A830E94F5029A8189810F900F90B5
:10062000DF91CF910895019710F00000FCCF08955D
:100630008295807F9091B5009F70982B9093B50024
:100640000E94AB01C49A82E390E00E941303C49815
:100650000895CF93C82F82958F700E9418038C2F16
:100660000E94180386E990E0CF910C941303C3987D
:100670000E94290386E990E00C941303606881309E
:1006800009F4605C862F0C94370383E00E94180302
:1006900080E596E40E94130383E00E9418038CE730
:1006A00095E10E94130383E00E9418038CE795E113
:1006B0000E94130382E00E9418038CE795E10E94D8
:1006C000130388E20E9437038CE795E10E9413032D
:1006D00088E00E9437038CE795E10E94130381E0D4
:1006E0000E9437038CE795E10E94130382E00E9489
:1006F00037038CE795E10E9413038CE00E943703D7
:100700008CE795E10C94130381E00E9437038CE79A
:1007100095E10C941303C39A0E94290382E390E0AD
:100720000C941303CF93DF93FC018491EF01219686
:10073000882321F00E948B03FE01F7CFDF91CF9138
:1007400008950F931F93CF93DF9300D0CDB7DEB7FB
:100750008B0189839A830E94840389819A810E94F4
:10076000920380EC0E943703C8010F900F90DF9135
:10077000CF911F910F910C949203CF93DF93EC01D3
:100780008991882319F00E948B03FACFDF91CF91D2
:100790000895462F50E063E970E00E94450683E922
:1007A00090E00C94BD030F931F93CF93DF931F92A0
:1007B000CDB7DEB78C01040F111DF80181918F01B7
:1007C000882341F0662331F069830E948B0369819D
:1007D0006150F3CF0F90DF91CF911F910F9108954A
:1007E000EF92FF920F931F93CF93DF93CDB7DEB7B6
:1007F00061970FB6F894DEBF0FBECDBFE42E462F33
:1008000050E08E010F5F1F4FB8010E944506F801AE
:1008100001900020E9F73197E01BF10BFE2CFE1A46
:100820001F1454F4FA9480E30E948B03F110FACF62
:10083000C8010E94BD0306C04F2D41956E2DC80111
:100840000E94D30361960FB6F894DEBF0FBECDBFF2
:10085000DF91CF911F910F91FF90EF900895CF936B
:10086000C42F0E943E03CC2329F080E20E948B0318
:10087000C150F9CFCF9108951BBA87E088BB8CEFA8
:1008800085BB81E682BB1ABA8BEB87BB14BA82E9BF
:1008900081BBF89410BC89E189B91BB886E880BD9A
:1008A00088E98AB917B886E186B910BE8FE085BF9E
:1008B0001BBE14BE8AE083BF87EC8CBF15BC8FEFD4
:1008C00083BD82E089BF80E58DB981E08EB97894DF
:1008D00008955D9BFECF8CB90895CF93DF93EC0113
:1008E0008991882319F00E946904FACFDF91CF9192
:1008F0000895CF93DF93FC018491EF012196882323
:1009000021F00E946904FE01F7CFDF91CF91089595
:100910000F931F93CF93DF931F92CDB7DEB78C0158
:10092000040F111DF80181918F01882341F0662386
:1009300031F069830E94690469816150F3CF0F909F
:10094000DF91CF911F910F910895CF93DF93CDB792
:10095000DEB761970FB6F894DEBF0FBECDBF462F4E
:1009600050E0BE016F5F7F4F0E944506CE010196A9
:100970000E946D0461960FB6F894DEBF0FBECDBF26
:10098000DF91CF910895EF92FF920F931F93CF9332
:10099000DF93CDB7DEB761970FB6F894DEBF0FBE19
:1009A000CDBFE42E462F50E08E010F5F1F4FB801E0
:1009B0000E944506F80101900020E9F73197E01BFD
:1009C000F10BFE2CFE1A1F1454F4FA9480E30E94DB
:1009D0006904F110FACFC8010E946D0406C04F2DC2
:1009E00041956E2DC8010E94880461960FB6F89457
:1009F000DEBF0FBECDBFDF91CF911F910F91FF9052
:100A0000EF9008951F920F920FB60F9211242F931B
:100A10008F939F93EF93FF93909184008091850033
:100A2000292F281B2032A8F4E091860081E08E0F48
:100A300080938600F0E02CB1E554FF4F20839F5F48
:100A400090938400813210F0109286001092BA00C8
:100A500006C08CB18093890081E08093BA00FF9139
:100A6000EF919F918F912F910F900FBE0F901F903C
:100A700018951092BA008091850090918400981783
:100A8000A1F08F5F8093850080918700813210F004
:100A900010928700E091870081E08E0F809387009D
:100AA000F0E0E554FF4F8081089580E008951092B2
:100AB000BA00282FFC018E2F821B90918500309167
:100AC00084003917B9F08617A8F49F5F90938500CA
:100AD000A091870081E08A0F80938700B0E0A55441
:100AE000BF4F8C91819380918700813220F31092C7
:100AF0008700E1CF08958091840090918500891B43
:100B0000089557988CB180938800109287001092B6
:100B1000860010928500109284001092BA00579AB5
:100B20000895F89482B98FEF83B984E086BF7894F2
:100B300085EC86BF08951F920F920FB60F92112475
:100B40008F93EF93FF9381B1803909F45EC068F40D
:100B5000803709F456C08038D9F1803609F05AC080
:100B600081E080938A0082E04DC0883AD9F058F441
:100B7000803A09F04FC085E080938F0085EC86BFF6
:100B800010928A0049C0883B99F0803C09F042C02D
:100B900010928F0010928E0010928B0081E0809353
:100BA0008D0036C084E080938F0081E080938B00BD
:100BB00080918F00843061F5E0918E0081E08E0F8E
:100BC00080938E00F0E0E351FF4F808183B920C015
:100BD00080918F00823039F483B180938E008093AE
:100BE0008C0083E00FC0833099F4E0918E0081E0A7
:100BF0008E0F80938E00F0E083B1E352FF4F80832D
:100C000007C081E080938F0003C083B18093DC0034
:100C100085EC01C084E886BFFF91EF918F910F9022
:100C20000FBE0F901F9018950E943C048CE00E940C
:100C30009105A398AB989B9B03C084E690E002C00B
:100C400084E590E00E94790480E090E0C0E023B366
:100C5000287030E028173907A1F09B9B12C0CF5FA6
:100C600086E690E00E946D046AE08C2F90E00E947E
:100C7000A50488E790E00E946D0480E890E00E945F
:100C80006D0483B3887090E0E2CFFB019F01E8948C
:100C90004230C4F04532B4F44A3029F497FB1EF4D4
:100CA000909581959F4F642F77270E947606805DEF
:100CB0008A330CF0895D8193CB010097A1F716F47C
:100CC0005DE251931082C9010C946606DC01FC01BF
:100CD000672F71917723E1F7329704C07C916D9370
:100CE00070836291AE17BF07C8F30895AA1BBB1BA0
:100CF00051E107C0AA1FBB1FA617B70710F0A61B1C
:100D0000B70B881F991F5A95A9F780959095BC013C
:080D1000CD010895F894FFCF16
:100D18005C005B005A00427574746F6E203220705C
:100D280072657373656420002074696D65732E00A5
:020D38000A00AF
:00000001FF
